:020000022000DC
:1060000000000120756302005D6302005F6302000F
:106010006163020063630200656302000000000028
:1060200000000000000000000000000067630200A4
:1060300069630200000000006B6302006D630200F0
:10604000C1B002006F630200FDB402006F63020082
:106050006F6302006F63020079B302006F63020096
:106060006F6302006F6302006F6302006F630200E0
:106070006F63020009B602006F6302006F630200E3
:106080006F630200D17102006F6302006F63020050
:106090006D7202006F630200412703006F6302000C
:1060A0006F6302006F6302006F6302006F630200A0
:1060B0006F6302006F630200000000000000000038
:1060C0006F6302006F6302006F6302006F63020080
:1060D0006F6302006F6302006F6302000000000044
:1060E00000000000000000000000000000000000B0
:1060F00000000000000000000000000000000000A0
:10610000000000000000000000000000000000008F
:10611000000000000000000000000000000000007F
:10612000000000000000000000000000000000006F
:10613000000000000000000000000000000000005F
:10614000000000000000000000000000000000004F
:10615000000000000000000000000000000000003F
:10616000000000000000000000000000000000002F
:10617000000000000000000000000000000000001F
:10618000000000000000000000000000000000000F
:1061900000000000000000000000000000000000FF
:1061A00000000000000000000000000000000000EF
:1061B00000000000000000000000000000000000DF
:1061C00000000000000000000000000000000000CF
:1061D00000000000000000000000000000000000BF
:1061E00000000000000000000000000000000000AF
:1061F000000000000000000000000000000000009F
:10620000354936480A1A02D0072291438D4634494F
:1062100034480A1A06D00722914381F309880222E2
:1062200082F3148830483149314A00F044F831484B
:106230003149324A00F03FF831483249324A00F0E1
:106240003AF832483249334A00F035F83248334997
:10625000334A00F030F833483349344A00F02BF821
:1062600033483449344A00F026F83448344900228F
:1062700000F02CF833483449002200F027F8334866
:106280003349091A082902DB002202604160314AC1
:1062900090471F481F49884205D00268043003B464
:1062A000904703BCF7E700208646EC46002000211B
:1062B000294A9047FEE7884207D0521A05D0037852
:1062C00001300B700131013AF9D17047884202D098
:1062D00002700130FAE770470000012000E0002062
:1062E000000001200000012068BB0300AC2A002050
:1062F000482B0020D4630200D463020064600300D2
:1063000068BB0300AC2A0020AC2A002028620300EE
:106310002862030028620300286203002862030049
:1063200028620300286203002862030068BB0300A0
:1063300004BC0300482B0020482B0020482B0020E1
:106340001846002018460020184600201846002055
:10635000186600209D63020059CD0200FEE7FEE7AB
:10636000FEE7FEE7FEE7FEE7FEE7FEE7FEE7FEE705
:10637000704700BF1048804710484FF0070188431E
:1063800085460F4880470F48016841F4700101605D
:10639000BFF34F8FBFF36F8FFFF732BF0A480B4930
:1063A0000B4A884207D0521A05D0037801300B708F
:1063B0000131013AF9D170477163020000000120F8
:1063C0003598020088ED00E014620300982A00204E
:0463D000AC2A0020D3
:1063D4007047000007B5044B0093044A402300F0C3
:1063E40032F803B05DF804FBF5630200492B00208A
:1063F4002DE9F84389461446B2B10F4B0F4E0325DD
:10640400002743F00108224609EB0701002007F0AA
:106414007BF90744241A48B933782BB14FF47A40F6
:10642400C047013D02D13570BDE8F88301233370C4
:10643400002CE8D1F8E700BF30620300482B0020AD
:10644400704707F095B9F0B595B01C461646084656
:106454000D4602F0CFFF1A9B0D93CDE9086400248A
:106464002346082205A928460A948DF82C400C944A
:1064740002F0DDFF079B0293069B03939DF8143003
:106484008DF8114003F00302012A1DD1BDF8144018
:10649400059EC3F3C203C4F383148DF81030A20025
:1064A40008230EA9284602F0C2FFC6F3952608ABBE
:1064B4000093224602AB0EA9304600F0B9FB2846F1
:1064C40002F09CFF15B0F0BD022AF8D1BDF81640C9
:1064D400C3F3C203A4098DF810300827082C2646FC
:1064E40028BF08263B4632460EA9284602F09FFFE5
:1064F400A41B08AB02AA31460EA8374400F0FCFBEB
:10650400002CEBD1DBE7000008B5FFF79AFF04216C
:10651400034800F0FBFA034B01225A7108BD00BF87
:1065240004620300AC2A0020037813F0040216D09E
:1065340003F00303012B03D0022B09D00120704781
:106544000A6800880232C0F3831002440A60F5E747
:106554000B684288023303EB92130B60EEE710469C
:10656400704700002DE9F04F87B000230446851CD6
:106574000DF107000F4690468DF8073001F07EF9C3
:10658400454806683E60D0E90132134401339B1B41
:10659400824600F21C4600F5836900F21447AB42C0
:1065A4001BD30022B8F1000F70D0052363F3070258
:1065B40064F38912DAF80010DAF808309DF807005D
:1065C4000B4003330D444AF82320CAF8005001F06D
:1065D40079F9012007B0BDE8F08F0121304602F0BF
:1065E40090F9484602F0A6F9384602F0A3F9DAF821
:1065F4000400DAF808B0029000EA0B0003300AEB5A
:10660400800002A9FFF790FF029B50BB0BEA030234
:106614000AEB820203F1020CD2680392013303EA0B
:106624000B0B0AEB8B0B02F00302012ACDF808C016
:10663400DBF80C1022D0022A16D08346384602F02A
:106644007CF910B1029BCAF804305946304602F076
:1066540058F9DAE901231344DAF8002001339B1ACC
:106664009DE70BEA0300C9E7BDF80E309B0903332D
:106674004FEA114B0CEB93030293DFE7BDF80C30A8
:10668400C3F383134FEA114B6344F5E7062363F323
:10669400070264F39F528DE75C2C00200B4B0C48DF
:1066A400FF2210B59A600022C3F81824C3E900221F
:1066B400C3F8142483F8202402F055FE044610B9CC
:1066C400044802F0D2FF204610BD00BF5C2C00201D
:1066D400086103005462030030B50A4C71B10A4AE0
:1066E4000A49121BD20800239A4201D1002030BD6E
:1066F40031F82350854202D00133F5E7034654F8BC
:106704003300F4E72461030004620300AC2A002090
:10671400094B013903EBC000032909D8DFE801F074
:106724000A020406042070470079704740797047D4
:10673400002070470220704724610300154B93F832
:10674400203437B504460BB918B90024204603B0E9
:1067540030BD0CF084FB0130009001236A4601A98E
:106764000D4802F08BFF05460028EED12146009A21
:1067740001980CF0F6FADDE900231344064803F807
:10678400015C009902F0B4FF0099034802F0C7FFCE
:10679400019CDBE75C2C002054620300034BD3E92B
:1067A4000030C31A58425841704700BF5C2C002087
:1067B4002DE9F04387B0FFF7F1FF0646002840F0CB
:1067C400FB807E4DC5F81804BFF34F8F6868AC6832
:1067D40002902040033005EB800002A9FFF7A4FEDD
:1067E400029B18B1D5F81824002A5FD004EA0302EA
:1067F400991C013305EB8202234005EB8303D26825
:10680400DB68049302F00303022B0392029162D12A
:10681400BDF80E306A484FEA9318B8F1500FC146DC
:1068240028BF4FF0500969F38F1309F10801ADF83F
:106834000E3002F0B0FD0746002800F0A88002F0F8
:10684400D9FD03A900230822384602F0E6FD029987
:1068540024EA01060136B600B14535D95FFA89F953
:106864007EB3F6B2A9EB0609214003315FFA89F43D
:10687400B146544E05EB810108234A46384602F0DE
:10688400CCFD36B109F1080322463146384602F000
:10689400C4FD029B08F1030803EB98030293D5F8A7
:1068A4001834002B4BD1D5F810445BE02A689A4287
:1068B40004D86A60304607B0BDE8F08304EA0300F8
:1068C40088E740493446D7E72140033108234A4644
:1068D40005EB8101DAE7012B59D1BDF80C303848BA
:1068E400C3F38311062928BF062161F389130231FA
:1068F4008900ADF80C3002F04EFD0746002846D062
:1069040002F078FD0023082203A9384602F085FD31
:106914000026BDF80C20C2F38312B300964203F1A3
:106924000803BCD202994A1C21400331029205EBB0
:1069340081010422384602F070FD0136E9E7384649
:1069440002F05CFDFFF72AFF80F00100C6B2B1E758
:10695400E3685B7923B1236839461B68204698476E
:10696400E3681C68002CF3D1384602F047FD0DF1B2
:1069740007008DF8074000F081FFD5F818340BB9F3
:10698400029B6B609DF8070000F09CFFDAE7D5F8E6
:10699400104454B90C4B0D480D49C01AC0080004EA
:1069A40040F0020000F06EF8CCE7236820469B68B4
:1069B4009847E3681C68ECE700267BE75C2C002022
:1069C40008610300682C0020246103005461030063
:1069D400606203002DE9F74F284C80460F4692462B
:1069E40001A9012218469B46D4F80890FFF7BAFD86
:1069F40080B3019D0026A91C5E4506EB010233D13C
:106A040000211F4801F03CFF80F310006A1C02EAD9
:106A1400090204EB8202000405EA0903033340EA95
:106A24001840D06014F8232068F3C50204F823202A
:106A340034F8232066F3891224F8232054F8232001
:106A440067F39F2244F8232002F0F80242F0010287
:106A540004F8232094F820341BB1FFF7A9FE002882
:106A6400FBD103B0BDE8F08F09EA020204EB820215
:106A74005AF82630D3600136BEE700BF5C2C0020F4
:106A84007830002000231A46FFF7A4BF07B501237E
:106A9400019201AAFFF79EFF03B05DF804FB07B55E
:106AA400CDE9002302236A46FFF794FF03B05DF8A3
:106AB40004FB1FB5CDE90123069B039301AA03231D
:106AC400FFF788FF05B05DF804FB1FB5CDE900238F
:106AD400069B0293079B03936A460423FFF77AFFFE
:106AE40005B05DF804FB7FB5CDE90023089B029354
:106AF400099B03930A9B04930B9B05936A46062305
:106B0400FFF768FF07B05DF804FB000030B50F49DC
:106B1400D1F81024002314463CB9C468237152B937
:106B2400C1F810042260184630BDE46825799D42FE
:106B340006D02468F0E7D268116821601060F2E79B
:106B440001330A2BE7D14FF0FF33ECE75C2C002034
:106B5400094A38B50123D2F8104482F820341D467E
:106B640004B938BDE3685D71236820465B689847C3
:106B7400E3681C68F4E700BF5C2C0020037A052B53
:106B840010B50C460FD0437A23B1084A0849204671
:106B940001F039FF0749204601F035FF2046BDE8E2
:106BA400104001F025BF002AF8D0F3E7AB620300E0
:106BB400A3A50300CD620300C38873B504460D4644
:106BC40033B1144A00921449144A284601F01BFFB9
:106BD400217A05291CD0637A4BB1A088FFF798FD70
:106BE4000F4B104953F82020284601F00CFF227A5D
:106BF4000D4BA08853F822600021FFF76DFD0B496F
:106C040003463246284602B0BDE8704001F0FBBEA0
:106C140002B070BDAB620300B8620300B06203004F
:106C240078620300A3A50300DC620300D0620300C2
:106C34002DE9F04385B01F460C9D002306460C4603
:106C4400904695F80C902B7329463846FFF7B4FF0D
:106C5400B8F1060F09D8DFE808F00412181F28332A
:106C640040003146284601F0CEFE0022294638462F
:106C7400FFF784FF85F80C9005B0BDE8F083226827
:106C84003146284601F0BFFEEFE7D4E90023314640
:106C9400284601F0B8FEE8E7A36800933146D4E93A
:106CA4000023284601F0AFFEDFE7E3680193A36801
:106CB40000933146D4E90023284601F0A4FED4E72A
:106CC40023690293E3680193A36800933146D4E9EE
:106CD4000023284601F097FEC7E7636903932369FD
:106CE4000293E3680193A36800933146D4E9002337
:106CF400284601F088FEB8E708292DE9F84F8046B8
:106D04000E4617461C4636D8002593F80C901D7382
:106D140019461046FFF750FFDFF87CA0DFF87CB07F
:106D2400AE422AD918F805205946204601F06BFED8
:106D34000135082DF4D11649DFF864B0204601F07E
:106D440062FE0025AE421DD918F805A050460BF08E
:106D540025FF002814BF52462E225946204601F032
:106D640052FE0135082DEDD1012221463846FFF7A8
:106D740005FF84F80C90BDE8F88F5146204601F0D9
:106D840042FED5E70349204601F03DFEE9E700BF96
:106D9400A6620300A4620300A26203009C620300D3
:106DA400A86203002DE9F04F394E87B04FF0000977
:106DB400384B1B785FFA89F5AB4202D807B0BDE8BF
:106DC400F08F354BD3F800A01AF835000124D6E92A
:106DD400001EA0F12002C0F1200304FA02F224FAFA
:106DE40003F3134304FA00FC009301EA0C03029337
:106DF400009B0EEA03030393DDE9022313430AEB2A
:106E0400C50B41D0009B21EA0C012EEA0303C6E91D
:106E1400001304F0A5FA1AF835502049A5F1200210
:106E2400C5F1200304FA02F224FA03F31343D1E96F
:106E340000C2AC40134004EA0C0105930024C3B221
:106E4400CDE90034009A0491C5F12003A5F1200195
:106E540022FA03F302FA01F848EA03081346AB40A6
:106E64001F46DDE90434444508BFBB420CD1DBF8BE
:106E740004304BB19BF801104A1E51425141081A8B
:106E8400414241412846984709F1010990E700BF72
:106E940048310020183100205031002040310020BA
:106EA4002DE9F0418046204800F0C2FBD0BB01250B
:106EB400A8F12004C8F1200325FA03F305FA04F429
:106EC4001C431A4BD3E9001205FA08F501EA05063A
:106ED40002EA040756EA07001E461DD1404604F0A4
:106EE4003FFA134BD3E9001288B129432243C3E983
:106EF4000012D6E900231C430E4B0B4819681543B6
:106F0400C6E900540022BDE8F04100F04BBB21EA81
:106F1400050122EA0402EAE721EA050522EA04045B
:106F2400C3E90054BDE8F08120310020483100203D
:106F3400403100201C310020042A2DE9F34105468C
:106F44000C4616463AD904F049F9D8B11C4B1D49F0
:106F54001D601D4BDFF884801C701C4B00221E60DA
:106F64000023C1E900231A49C1E90023013CE4B22A
:106F740000260327FF2C0CD1164A1748002100F0E5
:106F8400FFFA03E004F0F0F80028DFD002B0BDE817
:106F9400F08123B205EBC30201A992788DF8052094
:106FA40015F833008DF8066042468DF8047004F03D
:106FB4001FF9013CE4B20028DCD0E7E70720E5E74D
:106FC4005031002040310020183100201C310020B5
:106FD40048310020A96D02003C630300A56E020045
:106FE40070B5084D084E00242B789C4201D3002034
:106FF40070BD3368012113F8340004F06DF90134D5
:10700400F2E700BF18310020503100201FB50021E5
:10701400039001AA44F20100CDE9011100F004F843
:1070240005B05DF804FB000010B572B6FFF790FDE3
:10703400FFF7BEFB0028FBD1104B114C1149E41A99
:10704400E408240444F00100FFF71CFD0E4B1B6808
:10705400DB0700D500BE0D4944F00200FFF712FD26
:10706400BFF34F8F0A490B4BCA6802F4E062134323
:10707400CB60BFF34F8F00BFFDE700BF2461030067
:107084005461030040630300F0ED00E04C6303002F
:1070940000ED00E00400FA0549B152B1531E1A4054
:1070A40007D1826001608380C260104670470E2061
:1070B40070470920704710B58468C2688388121B22
:1070C400934208D3C26813400268D154C3680133A1
:1070D400C360002010BD0420FCE78268C3689A42A4
:1070E4000AD08268838813400268D35C0B7083687B
:1070F400013383600020704705207047094A5378A4
:1071040091780133DBB2994208BF00231178994288
:107114001FBF03705078182303FB002014BF0430F2
:10712400002070475431002073B5054600240DF14A
:1071340007000E468DF8074000F0A0FB0DF1060095
:10714400FFF7DCFF90B10670094B9DF806204560FF
:107154005A709DF8070000F0B5FB24B9054B4FF4B5
:107164008012C3F80021204602B070BD0424F0E769
:107174005431002000E100E0024B4FF43C6043F046
:10718400010318476063030038B50C4B0C4C4FF4F3
:107194000032C3F8802001254FF48033C4F848330B
:1071A400C4F808336560FFF7E7FF064BA5600024C9
:1071B4001C60FFF7E1FF044B1C7038BD00E100E0E8
:1071C400001001407032002061320020F8B51F4BDE
:1071D4001F491B680025C1F84051C1F84451C1F84A
:1071E4004851C1F84C51C1F80051C1F804514BB396
:1071F400D1F8044517490968641A24F07F442F46DE
:107204001A68A24209D8A41A15441A7CDE691AB174
:107214001F74D3E905209047AEB90F4A0F4B11787C
:107224001B788B4205D10133DBB2022B08BF00234C
:10723400137012780A4B43F822500A4B4FF4801211
:10724400C3F80021F8BD3346DAE700BF74320020EA
:1072540000100140703200206D3200206C3200209A
:107264006432002000E100E02DE9F04FA14AA24978
:1072740013780978A14D994285B03CD00133DBB233
:10728400022B08BF002313709D4912789D4B0F6891
:1072940053F822003B1823F07F4300220B602B6835
:1072A40016461446944613B942B12B6006E0196899
:1072B40081420ED902B12B60091A196001272B688B
:1072C400DFF848A201934FF00008BEB9DFF844B2DA
:1072D40066E0401A0C44D968C3F800C0D3F81CE037
:1072E40031B13A1922F07F42C3E90121DE611E4621
:1072F40001227346D7E700263746E0E73446F669AD
:107304007F4A63681268DFF810C2A068991A21F0F6
:107314007F41614500F2A68001442160012222746C
:107324002A680023C4E90133E361002A40F0A38002
:107334002C60CAE75A1C9BF80210D2B291428BF817
:10734400002004BF00228BF80020182202FB03B3A4
:107354001A799C68022A1CD0032A12D0012A1FD150
:10736400207CE8B9D3E90312A2605A69E2609A6901
:10737400654BA2611B78002B0CBF0B460346636070
:10738400BEE700222B681146002B67D142B12B6067
:1073940006E029680A468946002A5AD10023237444
:1073A4009BF800309BF801209A42C3D12B68B8F1B6
:1073B400000F04D1019A9A4201D1002F43D0002B2F
:1073C40073D0D3F800A0514D4D4BD5F804751C680B
:1073D400DFF848813E1B98F8003026F07F460336DC
:1073E4009BB94FF48033C5F84433C5F80433484B94
:1073F4004FF400324FF00109C3F880211A60C5F838
:107404000090FFF7B9FE88F80090B2452CBF5444B1
:10741400A41924F07F44C5F84045D5F80435DB1B96
:1074240023F07F43E41B033324F07F44A3420AD9AF
:10743400D5F80435C5F84035FFF79EFE344B4FF4BC
:107444000032C3F80021304B00221A7005B0BDE8A9
:10745400F08F94422CD09146D2699DE71974012291
:10746400DB6991E7D31A23F07F43834234BFC31A05
:107474000023236052E721681368994213D8591AEC
:107484001160E26154E7091AD8691A4638B1034613
:1074940018688842F7D3401A1860184613462160CA
:1074A400E061DC6111E71346F2E7FFF76DFECAE71E
:1074B4004C4511D1CB692B6073B9DFF844E001204E
:1074C400CDE90212CAF80800CEF800300E4B18704D
:1074D400FFF752FEDDE902121368D269C9F81C20D5
:1074E40012B11068034413602B68994218BF4FF01F
:1074F400010853E76C3200206D3200207432002002
:1075040070320020643200206032002000100140FC
:1075140000E100E054310020FEFF7F0061320020D2
:1075240008B5FFF731FE104B00200B2218809A702B
:107534000E4B18600E4B18700E4B18700E4B4FF418
:107544008012C021C3F8802183F814131A6002F159
:107554008042A2F56F22C2F8080583F81113074B85
:10756400D2F804251A6008BD54310020743200207A
:107574006C3200206D32002000E100E07032002007
:10758400074B9B784BB132B128B10368187C20B902
:1075940059745A617047072070470820704700BF2C
:1075A400543100202DE9F7431E4FBB7805460E46A3
:1075B4009046A3B398B304292FD943697BB3437C82
:1075C4000024012B0DF107000CBF8946A1468DF85C
:1075D400074000F053F90DF10600FFF78FFDD0B11D
:1075E40001230370104B4560D3F80435C0E90498B7
:1075F400C0E902369DF806307B709DF8070000F064
:1076040061F924B9094B4FF48012C3F800212046D4
:1076140003B0BDE8F0830424EFE70724F7E7082468
:10762400F5E700BF543100200010014000E100E004
:10763400064A92783AB130B1426922B1002202740A
:107644000221FFF771BD0820704700BF54310020AC
:10765400014BD3F80405704700100140401A20F094
:107664007F4070470648074A03780749D35C0122E4
:1076740013B1043004F0FABB0C3004F0D9B900BFE4
:10768400B42A00205C360020A03200200648074AB5
:1076940003780749D35C012213B1043004F098BB8A
:1076A4000C3004F071B900BFB42A00205C3600200D
:1076B400A132002037B50578012D05D0002D30D03A
:1076C400022D23D003B030BD43681C4C19782046EA
:1076D400FFF7F1FC78B18DF800500190184B684623
:1076E4001B689847A168E368A2885B1A9A4209D389
:1076F400FFF7B8FFE6E7A268E3689A42F2D08DF894
:107704000000EBE70F4B01221A70DBE7C3688DF82A
:1077140000500193FFF7A6FF094B68461B68984782
:10772400D0E709490948FFF7D8FC10B9FFF7AEFFC5
:10773400C8E703238DF80030EEE700BF7C32002059
:10774400783200208C320020A132002090320020B8
:10775400F0B51F46234B89B006461A600C46002933
:107764003DD08A8820480968FFF796FC002834D168
:10777400A289A1681D48FFF78FFC00282DD11C4D5C
:107784000FCD6C460FC495E80F0084E80F007369B1
:107794000693337C174A18488DF81C70003318BFC1
:1077A40001238DF81430737C002B14BF0E230023A7
:1077B4008DF81530F3680293B3680393336801932B
:1077C40069467368009303F007FC30B90B4B1870DB
:1077D4003368013301D0FFF745FF09B0F0BD07203E
:1077E400FBE700BF783200207C320020903200207A
:1077F40068630300B9760200B42A00208C320020AA
:1078040070B5084C014608482678FFF766FC054623
:1078140036B100232370FFF725FF08B1FFF7F6FB0D
:10782400284670BD8C3200207C32002010B5014601
:107834000E48FFF740FC0446A8B90D480D4A0378EA
:10784400D35C63B1043004F005FB60B90A4907480E
:10785400FFF743FC38B9BDE81040FFF717BF0C3001
:1078640004F0DAF8F1E7204610BD00BF90320020A2
:10787400B42A00205C360020A132002070B5EFF35A
:10788400108672B60C4A946801239CB993600B4B22
:107894000B4DD3F8801029401160C3F88050D3F801
:1078A400841051604FF0FF32C3F88420047006B98D
:1078B40062B670BD0370FAE7A432002000E100E074
:1078C400FC06FFBD084B9A6810B55AB150B9EFF3E6
:1078D400108172B6054A1C6814605C685460986034
:1078E40001B962B610BD00BFA432002000E100E07F
:1078F40070B5064D0646002455F8043B0BB13046DE
:1079040098470134042CF7D170BD00BFBC3200206D
:10791400033080B240F2FD33984230B51FD8124B89
:107924001A783AB91C895D892C440444A4B2B4F58C
:10793400806F0AD31A7DA2B99A8BDC8B224402444D
:1079440092B2B2F5806F0CD201220A80144614223E
:1079540002FB04335A8910445881002030BD0920A9
:10796400FCE70720FAE700BFF03200200B4A0C4B7B
:107974005188142000FB0131CB6833B904204968D5
:1079840010700122074801F0B9BA052306491370A3
:1079940002238B80012200230968F3E7D4320020FC
:1079A400F0320020982A0020B833002007B50023C5
:1079B40005490093054A09680548082301F008FAB7
:1079C40003B05DF804FB00BFB833002094630300E8
:1079D400982A002007B50023009301460823034A90
:1079E400034801F0F5F903B05DF804FB8C63030070
:1079F400982A002013B500230C4600930146042363
:107A0400074A084801F0E4F938B9074B142202FB8D
:107A140004340123237402B010BD0E20FBE700BF21
:107A240088630300982A0020F032002037B50A4802
:107A34000A4B42689C8819685388032503330570F0
:107A44009BB2002000909B0001EB8401044801F0EC
:107A5400BFF903B030BD00BFD4320020B8330020DA
:107A6400982A002010B50146044800F03DFE1C226F
:107A7400044600210BF09EF9204610BDA4330020DB
:107A840068B10268084B9A4209D14068074B984292
:107A940007D0013398420CBF012003207047032014
:107AA40070470020704700BFDEC0ADDEFE011EF14E
:107AB4004388033300EB8303994209D382884FF64A
:107AC400FF739A4206D00088B0FA80F040097047EC
:107AD40002207047012070472DE9F8430223DFF8A4
:107AE40060800B800D46174600F5805600F10804AF
:107AF4004FF00109B4420FD2236801330CD0314650
:107B04002046FFF7D5FF48B10FB187F8009002284F
:107B14000BD14FF480632B80BDE8F883A368D8F8B9
:107B24000020934201D9C8F800302B8862880333BF
:107B340013442B806388033304EB8304DAE700BF28
:107B4400E8320020154A142303FB002070B50B68AB
:107B540044680D4604F58056ABB15C88033403EBEE
:107B64008404B4420DD2236801330AD0314620463E
:107B7400FFF79EFF01280BD010F0FF0F05D002285D
:107B8400EFD1002003E00834EBE72C60012070BD46
:107B94006388033304EB8304E3E700BFF03200207F
:107BA400436873B504460D4663B3234AD1688B42D8
:107BB40028D31269934225D813F0030022D11F4A17
:107BC4002189128991421DD121689A68914219D163
:107BD4001B4A51688B4203D901F580518B420DD366
:107BE400926993420CD902F58052934208D2012340
:107BF4002B80B0FA80F0400902B070BD0346F7E76D
:107C04000A20F6E700232B801E46019601A9288846
:107C1400FFF798FF30B92B8801339BB2012B2B80DF
:107C2400F3D9E9E7019B226899689142EED1636038
:107C3400024B1B892381DFE7982A0020D4320020DD
:107C4400F03200202DE9F8431C461C4B1B780646F5
:107C54000F4615466BB372B36CB3DFF868804FF010
:107C64001409A388012B01D90A2020E009FB03F39E
:107C740018F803302BB92146A088FFF763FF20B919
:107C84002060A3880133A380EBE723681EB19988A1
:107C940032889142EFD11FB119883A889142EAD1D2
:107CA4009A68C5E90023064B1B892B810020BDE897
:107CB400F8830220FBE70520F9E700BFCC3200205F
:107CC400D4320020F032002008B5074B191D588823
:107CD400FFF738FF18B1BDE80840FFF7A7BEBDE8BD
:107CE4000840FFF743BE00BFD43200202DE9F04F17
:107CF400A04FDFF8A49289B00646B8463B6823B982
:107D040049469D4800F02AFD3860D8F8005029788B
:107D14004B1E052B00F2FA80DFE813F006005E002C
:107D24005E00EE00EE005C0126B1944B00225A6026
:107D34000124ECE02B79032B1DD8DFE803F01502B6
:107D44002A358F490B78022B084619D00B7D022B5C
:107D54004FF0010316D114225343C2180020C85413
:107D64005068FFF737FE03E001232B71FFF71EFE77
:107D7400002800F0BC80814B00225A600E24C6E02B
:107D84000023E8E77D4A13700023536041F61D5435
:107D9400BDE07C497C48002302222B718A800122A9
:107DA400096801F0ABF8E3E7764C00262E712068F1
:107DB400734DFFF70FFE754BD4F800C05A88142397
:107DC4005343EA18EE5451682160A188C2F804C0F4
:107DD40011810222A280CBE7B5F814A0AA7DDFF8B6
:107DE400A0B1AEB1022AEB8806D9142101FB0AB175
:107DF400DA1C088902440A81142202FB0ABAC3F578
:107E04007F43BAF80A20FD331344AAF80A308FE7F7
:107E1400142303FB0AB318895C6804EB8004062A64
:107E240068D8DFE802F0274D35431D59040041F6B8
:107E34001D54AA7DEB88022A06D9142101FB0AB13C
:107E4400DA1C088902440A81142202FB0ABAC3F527
:107E54007F43BAF80A20FD331344AAF80A3056E0E7
:107E64004B484C4900234360AB690360FFF798FE1D
:107E7400002871D00223AB75002300930423EA1871
:107E84002146414800F0A4FF002830D00E24D0E75A
:107E94002B69002B14BF03230123AB75002300932C
:107EA40005F10C02042304F10801EAE70123AB7590
:107EB4000022EB8800929B002A6904F10C01E0E7A0
:107EC40003290CBF05230623AB7500230093042369
:107ED40005F10802E118D4E70623AB752D4B198888
:107EE4002B4B5868FFF786FD04460028A1D109B042
:107EF400BDE8F08F0F249CE7002E7FF419AF2B7997
:107F0400012B4BD0E3B1022B3FF440AF0F241422DA
:107F1400002103A80AF04EFF41F61D539C4208BFFE
:107F24000024D8F8003004941A78023A042A00F2A3
:107F34000581DFE812F0E600F20015011D012401BD
:107F440002232B710DF10A01EB68039303A8CDE919
:107F54000466FFF725FE08B90A24D8E70498BDF89B
:107F64000A108388EB8003882B81FFF743FD0446C6
:107F740027E000BFEC320020A4330020CC320020E4
:107F8400F0320020B8330020982A0020D432002098
:107F9400B0320020C4330020E4320020DFF8FCA11A
:107FA40003AA53463146A81DFFF74CFE044658B9B0
:107FB400BAF804100498FFF71DFD04460A2C3FF498
:107FC400E5AE002CA3D192E70822314650460AF0D0
:107FD400F1FEF3E7002E7FF4ABAE6B4B1A7BAAB134
:107FE4001E731A78013A062A90D801A151F822F09A
:107FF4009B800200C1800200DF800200E580020055
:10800400117F0200EB800200FD8002001A78072A2B
:10801400E7D801A151F822F03D800200E77F020079
:10802400E77F0200638002007780020097800200ED
:10803400978002005F8002001A89544901321A8134
:1080440000225A801A730A78B2FA82F252099A729A
:108054000A7DB2FA82F25209DA72012207E04C492F
:1080640058688A884088033202448A8002221A703F
:10807400B7E7464C5A884649142505FB024208686E
:10808400546850608888108102228A800C6006221D
:10809400EDE70722EBE79A7A32B9DA7A8AB9002255
:1080A4001A705A805A6071E6384900229A72CA6876
:1080B400002AF2D1097C0029EFD05A80FFF704FE90
:1080C40055E70022DA72314A116A0029E7D192F8A1
:1080D4002420002AE3D00122EFE7FFF7A7FC46E7BC
:1080E400FFF744FC43E7294A5B88142101FB03237F
:1080F4005868FFF76FFC3AE700225A60FFF756FC16
:1081040035E701228DF80C201A89ADF818209A88D9
:10811400DB68ADF81A20059310E002228DF80C20DC
:108124001A89ADF818209A88ADF81A20DA689B7D70
:1081340005929A1F534253418DF81C3003A8FFF750
:10814400D7FB002649461348C8F8006000F031FB0D
:108154000121114800F0E0FB00287FF4CFADC6E612
:1081640003228DF80C20DA88ADF818201A89CFE79D
:108174000422DB888DF80C20ADF81830DEE70523E7
:108184008DF80C30DAE700BFD4320020F032002042
:10819400B8330020A4330020B4330020C8330020B7
:1081A4004068FFF7A3BD000008B50121044800F0B2
:1081B4009DFB18B9BDE80840FFF798BD08BD00BF96
:1081C400B43300202DE9F3419846354B1B7806461D
:1081D4000D46002B5BD000295BD009884FF6FF7356
:1081E400994258D06B88002B55D06B689B0754D1AB
:1081F4004AB92F890DF102013846FFF789FB30B1E6
:1082040002B0BDE8F08113885788ADF8023001A8A8
:10821400FFF728FC044658B9BDF80230214A14215E
:1082240001FB032358890338C01B58810820E7E762
:1082340000238375BDF8023083826B68036180F884
:1082440000800121184800F05CFB2B882381B8F1E1
:10825400030F6B88A38004BF0423A3754FF00005AC
:1082640008BF3368E06008BFA361E780658101A9A6
:108274000E4800F063FA36B1E36833600C4B756066
:108284001B89B5723381FFF78FFF0020B8E7022006
:10829400B6E70520B4E70420B2E70320B0E700BF47
:1082A400CC320020F0320020E8320020A433002039
:1082B400D432002008B5084B1A68042A09D019687A
:1082C400064A42F821000121184600F01AFB00205A
:1082D40008BD0C20FCE700BFC0330020BC320020E6
:1082E4002DE9F04F14228BB000210DEB02000AF0AF
:1082F40061FD744A137803F0FF01CDE901123BB12B
:1083040005A8FFF7F5FA002738460BB0BDE8F08F53
:10831400029B181D00F00BFB0028F4D14FF0102332
:108324004FF080525B6911695269674C581C08BF51
:1083340002FB01F323610022A3F540536349E36088
:10834400204600F011FD039407460028DCD11C23CD
:108354008C225F495F48DFF88891DFF8888100F05C
:108364008EF9BA463D464FF0030B3C46039BDE684C
:10837400564430463146FFF783FB01284DD042B2C4
:10838400002A36D0032822D106F58052086801302D
:1083940040F08A8004319142F8D1D9F800203AB9EA
:1083A40002220123C9F80060A9F8042001930CE01B
:1083B40014226243022008EB020108F80200464A34
:1083C4004E60548001340881A4B245F001050AF5D9
:1083D400805ABAF5405FC9D1BBF1010F98BF00259F
:1083E400EDB2022D03D0062D35D0002D3CD10B2744
:1083F4008AE71421614308EB010008F8012001F128
:10840400100208314660424441443046FFF764FBA1
:1084140045F002050134A4B2D9E7019B63B11422EB
:10842400624308EB0201022008F802000134D9F883
:1084340000204A600881A4B200222849C9F80060DB
:108444003046FFF749FBB9F80420022A0CBF042286
:1084540008221543BBE7029A0123137005A80023E1
:108464005360FFF745FA4FE704A8FFF7FBFAC8B1DA
:108474000123013D03700A2D09D8DFE805F0060841
:108484000608070807080F110F000023037104A949
:10849400104800F053F9FFF787FE35E70323F5E7AB
:1084A4000223F3E708272FE70BF1FF321FFA82FBC1
:1084B4001422624308EB02014E60032108F8021003
:1084C400A8E700BFCC320020982A0020886503006A
:1084D40018330020A4330020D4320020BC33002001
:1084E400B8330020F032002073B50D460446C8B1FD
:1084F400C1B10DF10601FFF753FBA8B10B4BBDF859
:1085040006006668142202FB003001210C3000F0E2
:10851400F8F963682E600C336B600123A3720020AA
:1085240002B070BD0520FBE70A20F9E7F032002015
:1085340013B50446A8B10DF10601FFF731FB90B164
:108544000B4ABDF80630142101FB0323DA6862B13B
:10855400A27A52B1DA680020013ADA60A07202B05D
:1085640010BD0520FBE70A20F9E70620F7E700BF66
:10857400F032002002230022FFF724BE18B10323A7
:108584000022FFF71FBE052070470000104B1B7828
:1085940013B50446ABB14FF6FF73984213D001A84C
:1085A400FFF760FA88B10523037001230371C480C7
:1085B40001A9084800F0C2F8FFF7F6FD002002B058
:1085C40010BD0220FBE70420F9E70820F7E700BF0D
:1085D400CC320020A43300200E4B1B7807B5A3B186
:1085E40001A8FFF73FFA90B10623037001A90A48D6
:1085F40000F0A4F8094B1A780AB101221A73FFF7A4
:10860400D3FD002003B05DF804FB0220FAE7082044
:10861400F8E700BFCC320020A4330020D43200207D
:1086240007B5ADF80600ADF804100DF1060001A978
:10863400FFF708FB03B05DF804FB07B51346ADF87C
:1086440006000A4600200DF10601FFF7FBFA03B00D
:108654005DF804FB07B51346ADF806000A460DF1B4
:1086640006000021FFF7EEFA03B05DF804FB20B129
:1086740019B103680B60002070470520704710B5DE
:1086840061B1B2FBF3F403FB1424A4B244B9C0E90E
:10869400001484608281C381204610BD0E20FCE753
:1086A4000920FAE782B050E8022FC188B2EB324FBA
:1086B4004FF0000317BF92B241EA014142EA01417F
:1086C40004E04268B2EB324F08BF012340E80212D3
:1086D400002AE8D18DF807309DF80730002B0CBF35
:1086E4001120002002B0704737B550E8013F9DB219
:1086F400C48925448489A54228BF2D1B0489A54229
:1087040002BFBFF32F8F002207E0C5EA030540E84C
:108714000154002CE9D14FF001028DF8032001939C
:10872400019B9DF803200B6002F0FF0322B10B882C
:108734000068184403B030BD1846FBE70A884B882C
:108744009A4209D150E8012FC2EA024240E80123CB
:10875400002BF7D1012070470020704737B550E84F
:10876400023F1FFAA3F5C488A54202BFBFF32F8FAF
:1087740000220DE0C48925448489A54228BF2D1B0D
:10878400C3EA054540E80254002CE8D14FF0010249
:108794008DF803200193019B9DF803200B6002F0E8
:1087A400FF0322B14B880068184403B030BD18465B
:1087B400FBE70A884B889A4209D150E8022FC2EAA3
:1087C400224240E80223002BF7D101207047002009
:1087D400704701F01F024B090121914000EB830017
:1087E40000F063B84B0910B501F01F040121A1404A
:1087F40000EB830000F04EF8E04000F0010010BDF3
:1088040001F01F0301229A404B0900EB8300D1437E
:1088140000F061B84B0901F01F0150F82300C84073
:1088240000F0010070472DE9F0474E1E760980469E
:108834000F460136002558F8254008EB8509E44326
:1088440094FAA4F4B4FA84F44FEA451A202C06D11D
:108854000135AE42EFD83C462046BDE8F08754448B
:10886400A742F5D921464046FFF7BCFF0028F3D0C4
:10887400D9F80040E44394FAA4F4B4FA84F4E5E7A4
:1088840050E8002F0B4640E8003C9CF0000FF7D165
:108894001046704750E8002F42EA010340E8003CCC
:1088A4009CF0000FF6D11046704750E8003F43EAB1
:1088B400010240E8002C9CF0000FF6D110467047EE
:1088C40050E8002F02EA010340E8003C9CF0000F4E
:1088D400F6D11046704750E8003F03EA010240E831
:1088E400002C9CF0000FF6D11046704750E8002F82
:1088F40002EB010340E8003C9CF0000FF6D1104667
:10890400704750E8003F03EB010240E8002C9CF064
:10891400000FF6D11046704750E8003FA3EB010268
:1089240040E8002C9CF0000FF6D11046704701215E
:10893400FFF7B0BF0121FFF7B8BF0021FFF7C0BFA9
:108944000021FFF7C8BF10B590B1D0E90123016839
:108954009B1ADBB20A60013BDBB2FF2B026802D137
:108964000020107110BD11684C1C14600B70F2E7EC
:108974000E20F7E737B5054600240DF107008DF802
:108984000740FEF77BFF2A686B68116899420ED98D
:10899400481E106011F8014CEB68298A01FB04346D
:1089A400AB6811791B1ADBB2994238BF13719DF879
:1089B4000700FEF787FF204603B030BD37B50546F4
:1089C40000230DF107000C468DF80730FEF756FF23
:1089D4002A681368591C1160E968641A298AB4FB6F
:1089E400F1F41C709DF80700FEF76CFF03B030BD76
:1089F400826810B504462AB1436901680069984742
:108A04000023A36010BD0EB403B5039921B104ABD8
:108A140001AA019300F06CF802B05DF804EB03B016
:108A24007047826830B40468551C8560A154D0E94D
:108A340001329A4202D330BCFFF7DABF30BC704730
:108A44002DE9F84F9946DDE90A43174682468846E0
:108A54000A460126BA420FD24E4538BF4E4613F09D
:108A6400010B01D164B900240125B9F1010F1AD910
:108A740009F1FF397D43F8E7B2FBF7F20136E9E784
:108A84009B070ED5B9F1000F0CBF30252025A64257
:108A9400EAD2013C29465046FFF7C3FF002CF6D129
:108AA400E1E72025F3E7B8FBF5F39F42E2D9DFF8CD
:108AB4003C90B8FBF5F3504619F8031005FB1388F6
:108AC400FFF7AFFFB5FBF7F3BD4207D2BBF1000FD1
:108AD40002D00CB1A64203D3BDE8F88F1D46E8E7E7
:108AE40020215046013CFFF79CFFF2E79C63030002
:108AF4002DE9F74F054617468846002900F03081D6
:108B040018F8011B49B92B7B002B00F0298128465A
:108B140003B0BDE8F04FFFF76BBF252940F0C080DC
:108B2400002698F800302D2B424608F1010823D086
:108B3400302B24D02B2B25D000242A2B02F1010129
:108B440023D13B681A1D1B683A601C440A461378FB
:108B54002E2B26D101324FF00009104610F8011BCC
:108B6400A1F1300CBCF1090F1DD80A2303FB091332
:108B7400A3F130090246F0E746F00106D1E746F0DA
:108B84000206CEE746F00406CBE711F8013CA3F158
:108B940030000928DBD80A2202FB0434303C0A46A0
:108BA400CBE74FF0000912F8011B01F0FB00682825
:108BB4009046F8D069290ED04AD8582964D006D8EE
:108BC40025296DD098F80030002B99D19BE76329B3
:108BD40062D06429F6D13A68D2F800A0111D8AEA5D
:108BE400EA723960A2EBEA724FF0010B092A5BDCEE
:108BF400CB4538BFCB462CB1BAF1000F01DB72076D
:108C040000D5013CB30702D5B9F1000F04D0F00739
:108C140002D4002C4ED10024BAF1000F52DACAF16A
:108C2400000A2D212846FFF7FCFE06F00302022A63
:108C340005D1B9F1000F02D1002C47D10024CDE9B0
:108C440000464B460A2251462846FFF7F9FEB9E78B
:108C540073294CD014D87029B4D13B681A1D3A60DA
:108C6400302128461C68FFF7DCFE78212846FFF7F0
:108C7400D8FE00220823CDE9003221461022E3E782
:108C840075292BD078299DD139680A1D3A60CDE920
:108C940000464B46102228E03B681A1D19783A60BA
:108CA4002846FFF7BEFE8DE70A230BF1010BB2FB4A
:108CB400F3F29BE7A345AFD220212846013CFFF7FE
:108CC400B0FEA6E77107B0D52B21ABE7A345B6D21A
:108CD40030212846013CFFF7A4FEADE73968CDE911
:108CE40000460A1D3A604B460A220968ACE73B6815
:108CF4001A1D3A6016F00106D3F800A020D1BAF18B
:108D0400000F03D050460AF0AAF80646B44200D930
:108D1400C4B90AF1FF3A1EE028460136FFF781FE86
:108D24001AF806100029F7D1A642BFF44BAF002C65
:108D34003FF448AF20212846013CFFF772FEF3E7D9
:108D44000026EDE720212846013CFFF76AFEDDE717
:108D54002846FFF766FE1AF8011F0029F8D131E70B
:108D640003B0BDE8F08F000007B50B4688B9124B7D
:108D74001248134AC01A0E23C0080093114B000472
:108D8400114940F00100FDF794FE0E2003B05DF898
:108D940004FB4BB9084B09480C4AC01AC0080E23FF
:108DA40000930004074BEBE703601B68114603B014
:108DB4005DF804EB184700BF2461030084610300DD
:108DC40059640300AC6303005E640300D5640300CC
:108DD4002DE9F34188B93D4B3D483E4AC01AC008CD
:108DE4000E243D4B009400043C4940F00100FDF783
:108DF40060FE204602B0BDE8F0814AB9334B3448E6
:108E0400374AC01AC0080E2400040094324BEBE722
:108E1400D0F800C0BCF1000F09D12C4B2C48314ACA
:108E2400C01AC0080824000400942B4BDCE74BB99B
:108E3400264B27482C4AC01AC00809240004009471
:108E4400254BD1E74768D7F80480B3FBF8F708FB54
:108E540017374FB11D4B1E48244AC01AC0080924B5
:108E6400000400941C4BBFE78F0709D0174B184828
:108E74001F4AC01AC008102400040094164BB3E71C
:108E840012F0030F09D0114B11481A4AC01AC00836
:108E9400102400040094104BA6E7C768B9420BD312
:108EA4004C1E05691C44AC4206D8DCF80C40A446B0
:108EB40002B0BDE8F0416047044B05480E4AC01AB1
:108EC400C008102400040094034B8DE724610300C0
:108ED4008461030059640300BE6303005E640300FD
:108EE400DB640300CF6403008E640300E1640300C9
:108EF4000B6503002365030046650300F7B580B9DD
:108F04002A4B2B482B4AC01AC0080E242A4B009423
:108F140000042A4940F00100FDF7CBFD204603B0D0
:108F2400F0BDD0F800C0BCF1000F09D11F4B2048A0
:108F3400234AC01AC0080824000400941E4BE8E722
:108F44004AB91A4B1A481F4AC01AC0080924000417
:108F54000094194BDDE74768D7F800E00EF1FF37BE
:108F64000F4209D0114B1248174AC01AC0081024E6
:108F740000040094104BCCE7C768B9420CD34C1ED4
:108F840005690EFB0244AC4206D8DCF81040A44646
:108F940003B0BDE8F0406047044B05480B4AC01AD3
:108FA400C008102400040094034BB2E724610300BA
:108FB4008461030059640300D16303005E64030009
:108FC400CF6403008E640300E46303000A640300B7
:108FD40029DF704728DF704770B503689D6886B045
:108FE40004460E466DB114220021684609F0E2FEE3
:108FF400A3680593237901962BB1012B0DD0684604
:10900400A84706B070BD01238DF800302369029390
:10901400E368039363690493F1E702238DF8003056
:10902400E3681B030293F5E7084670470020704786
:10903400024B187A003018BF012070476C340020AE
:10904400034B187A0122B0FA80F05A744009704731
:109054006C34002008B510461A4609F082FE002040
:1090640008BD000008B514220021044809F0A2FE3E
:109074000348FFF717FB002008BD00BF6C34002035
:109084005C34002010B5094C094B43602046FFF7BF
:109094004EFC40B909F038FB1C2320748C2205498E
:1090A4000548FFF7ECFA002010BD00BF6C34002027
:1090B4007C650300D03300205C34002070B5244C60
:1090C400244E237A25463BB923492448FFF746FB1F
:1090D400306008B9606070BD346802232B72237954
:1090E40073B1012B24D020460321FFF775FF002321
:1090F4002B726B6018491948BDE87040FFF759BBE3
:10910400D4E90523D21AB2F5805F28BF4FF4805208
:10911400D4E903109208012A38BF012219441844E3
:10912400FFF756FF50B11128DDD101232B72D2E78E
:10913400D4E903031844FFF74DFFF3E72B7C002B1E
:10914400C9D10146BDE87040022000F009B800BF53
:109154006C34002084340020803400205C340020EF
:1091640038B5831E012B45D8234C237A002B41D0DC
:10917400022B09D1032830D0204B1B680022E26067
:109184001A793AB1012A22D0637C7BBBBDE838400E
:10919400FFF794BFD3E905128D1AB5F5805F94BF2C
:1091A400521902F580529A619142EDD102284FF092
:1091B400000308BF19462372104B18BF0D2118680D
:1091C400FFF70AFF0E490F48FFF7F3FADCE71A69C5
:1091D40001321A615B699A42E7E7E3680133082BBD
:1091E40001D8E360D0E70023E360DFE7BDE838405F
:1091F40009F07ABA38BD00BF6C34002084340020F2
:10920400803400205C34002000F0FD03012B08D1E1
:10921400044B00225A74421E504250411874FFF706
:109224004DBF70476C34002010B5064C201DFFF76D
:109234007EFB28B9637C1BB9BDE81040FFF73EBF35
:1092440010BD00BF6C3400202DE9F34180460D466B
:109254000F4801A916461F46FFF746FA0446A8B16F
:109264001C22002109F0A6FD2D0B0123237101A965
:10927400C4F80080A760E56066610548FFF75EFA00
:10928400FFF7D2FF002002B0BDE8F0810420FAE726
:109294005C3400202DE9F74381468846104801A933
:1092A40017461E46FFF720FA0446B0B11C220021DF
:1092B40009F080FD00250A9BA36001A92571C4F86B
:1092C4000090C4E9037866610548FFF737FAFFF7B1
:1092D400ABFF284603B0BDE8F0830420FAE700BFE3
:1092E4005C3400202DE9F047B0F806904479D2F8B8
:1092F40000A09DF8208009FB04F4043C06460AEB18
:109304000300A0420F4688BFA4EB030A191DC2F84C
:1093140000A0B1FBF9F509FB15114DB9A9EB010446
:10932400544528BF5446BAF1000F04D1BDE8F08774
:109334003668013DF1E704317B1970182246B8F113
:10934400000F0ED001461846AAEB040A09F009FDE5
:10935400D145254436684C464FF0000128BF544699
:10936400E1E71946F0E7FFF7EEBAF8B546790146AA
:10937400721E0546002393422D6803D30024A6429F
:1093840002D8F8BD0133F6E70F682846FFF716FB4D
:1093940001343946F3E72DE9F843068ACD1C074624
:1093A400FFF7E8FA043E35440446B5FBF6F5F0B1A0
:1093B4004FF48073EDB28380C680013D076081461F
:1093C4004FF00008A84512D23846FFF7D3FA0646F4
:1093D40048B163790133637108F10108C9F80000E9
:1093E40007608146EEE72046FFF7BFFF344620467C
:1093F400BDE8F88301210430FFF783BA10B50121D9
:1094040004460430FFF788FA10F0FF0F04D1204619
:10941400BDE81040FFF7A9BF10BD1FB5039200229D
:10942400009203AAFFF75EFF05B05DF804FB1FB5C9
:1094340003920122009203AAFFF754FF05B05DF8DE
:1094440004FB41DF70470000064B10B500241C707C
:10945400054B1C60BFF35F8F0449054800F070F9A9
:10946400204610BD9034002094340020A8650300E9
:109474008834002007B500230DF107008DF807306C
:10948400FEF7FCF9F1EE103A23F09F03E1EE103AF7
:10949400BFF35F8F094B4022C3F884219DF8070076
:1094A400FEF710FA09F030F920B1FFF7CAFF03B054
:1094B4005DF804FB20BF40BF20BFF8E700E100E0F7
:1094C400026813685268934291BFD01A80680130D1
:1094D400801888BFC01A70472DE9F84303681D68D7
:1094E4005C68A54284BF836801331746884694BFED
:1094F400641B5C1BC2684168BC42064605FB021142
:109504000CD37A43404609F02CFCB3683D449D4299
:1095140088BF002533681D60BDE8F88304FB02F9A9
:109524004A46404609F01DFCF26871683C1B6243E0
:1095340008EB090009F015FC33681C60ECE70368CC
:1095440081681A685B688B4234BF01330023D31AE5
:10955400584258417047F7B5002304460DF10700FF
:109564000D468DF80730FEF789F92046FFF7E7FF2F
:1095740010B1237C002B3CD12268A6685368516843
:10958400B14234BF01310021516030B11168A0688B
:10959400814234BF013100211160E2686068511ECC
:1095A400072920D8DFE801F004101F141F1F1F181B
:1095B4002A78C2542046FFF783FF23689A688242C0
:1095C40000D29860002415E02A8820F81320F1E7DF
:1095D4002A6840F82320EDE7D5E9006700EBC300D3
:1095E400C0E90067E6E7294602FB030009F0B9FB7E
:1095F400E0E704249DF80700FEF764F9204603B071
:10960400F0BDF7B506460F461446AAB10DF10700A2
:1096140000258DF80750FEF731F93046FFF750FF6B
:10962400A0420CD3224639463046FFF755FF2C465C
:109634009DF80700FEF746F9204603B0F0BD052467
:10964400F6E737B5054600240DF107008DF807400D
:10965400FEF714F90C222146286809F0ABFB9DF8AB
:109664000700FEF72FF903B030BD836800225A606B
:109674009A60C3E90422DA601A6070472DE9F04168
:1096840006460F4690461D468BB9B0687368D0E90C
:10969400031403F1010C0A1B62450FD10024C8F81E
:1096A40000401DB3FFF74CF90020BDE8F08180684D
:1096B400FFF73DF90028E8D01120F6E701EA03029C
:1096C40023409A4238BF6444D8F800302CBFACEB36
:1096D4000204641A9C4228BF1C463368C8F8004040
:1096E40013443B60C3681C44C460DDE72846DCE7E0
:1096F40082684368106910B50133946803441B1BE6
:109704008B420AD30C44C2E902441046FFF715F910
:10971400002814BF0020082010BD0420FCE7806846
:1097240008B582680369D21A8A4207D30B44C0E998
:1097340004330430FFF704F9002008BD0420FCE7DB
:109744000B684A684360934208BF0023016008BF66
:1097540043607047436843B10268916852680B44A0
:109764009342436004BF00234360704710B50D4922
:10977400A1F59472914201D800200FE08B1ADB10FE
:1097840003EBD3735B1002EBC30452F83330834210
:1097940005D802D204F10802ECE7606810BD214646
:1097A400E8E700BFF866030008B5FFF7DFFF024BE8
:1097B400002808BF184608BDBD6503000C4B1B7884
:1097C400062B10D10B4B1B681A070CD10A4B1868D7
:1097D40000F0F003302B08D000F0E000A0F14003CB
:1097E400584258417047002070470120704700BF1D
:1097F400E00F00F0E40F00F0E80F00F0094B1B78D5
:10980400062B0CD1084B1B681A0708D1074B1868A4
:1098140000F0F000A0F13003584258417047002096
:10982400704700BFE00F00F0E40F00F0E80F00F015
:1098340008B5FFF7C3FF28B17D4B7E4A1B68C3F30D
:1098440004231360FFF7DAFF10B17B4B7B4A1A60E5
:10985400FFF7B4FF28B17A4B7A4A1B68C3F342334B
:109864001360FFF7CBFF20B1774AD36823F08073EE
:10987400D360FFF7A3FF40B14FF080430022C3F849
:109884000C21C3F81021C3F83825FFF7B7FF10B136
:109894006E4B03221A60FFF7B1FF40B16C4B0522F7
:1098A4001A6001229A6700229A603F225A60694B2B
:1098B4001B78062B50D1684B1B6819074CD1674B9A
:1098C4001B6803F0F003502B46D14FF08052644BD9
:1098D400D2F80414C3F82015D2F80814C3F82415D8
:1098E400D2F80C14C3F82815D2F81014C3F82C15A8
:1098F400D2F81414C3F83015D2F81814C3F8341578
:10990400D2F81C14C3F84015D2F82014C3F8441537
:10991400D2F82414C3F84815D2F82814C3F84C1507
:10992400D2F82C14C3F85015D2F83014C3F85415D7
:10993400D2F83414C3F86015D2F83814C3F8641597
:10994400D2F83C14C3F86815D2F84014C3F86C1567
:10995400D2F84424C3F87025FFF730FF28B1414BF7
:10996400414A1B6803F04F031360FFF727FF48B118
:109974004FF08043D3F80024D20744BF6FF00102B4
:10998400C3F80024394B1B68062B08D1384B1B68DD
:10999400062B01BF374A136843F480631360364AC9
:1099A400D2F8883043F47003C2F88830BFF34F8F85
:1099B400BFF36F8F4FF01023D3F80022002A03DB8C
:1099C400D3F80432002B2FDA2C4B0122C3F80425E0
:1099D400D3F80024002AFBD04FF010221521C2F83E
:1099E4000012D3F80024002AFBD04FF010231522D4
:1099F400C3F80422214B1A46D3F800140029FBD0E3
:109A04000021C3F80415D2F80034002BFBD0BFF3B7
:109A14004F8F19491A4BCA6802F4E0621343CB60B2
:109A2400BFF34F8F00BFFDE7164B174A1A6008BDFE
:109A3400240300104035014074C007400DF0ADBA56
:109A4400440200103C050040F0ED00E0A005004099
:109A540010560040E00F00F0E40F00F0E80F00F0B3
:109A640000C0004058020010E40E00403001001015
:109A7400340100103C17004000ED00E000E001401C
:109A84000400FA05C82A00200090D003054A4FF0CC
:109A9400A043105CD3F8043523FA00F0C04300F06F
:109AA40001007047B66A0300044B1A5C012393401B
:109AB4004FF0A042C2F80C35704700BFB66A0300ED
:109AC400044B1A5C012393404FF0A042C2F80835BE
:109AD400704700BFB66A030008B50020FFF7F0FF27
:109AE4000120FFF7EDFF0220FFF7EAFF0320BDE8A6
:109AF4000840FFF7E5BF08B50020FFF7D5FF0120B8
:109B0400FFF7D2FF0220FFF7CFFF0320BDE8084094
:109B1400FFF7CABF074A4FF0A041105CD1F80435E3
:109B24000122824022EA03001340C1F80805C1F86B
:109B34000C357047B66A03000D2809D00E2809D0E9
:109B44000F2809D010280CBF03204FF0FF307047B6
:109B5400002070470120704702207047014B185CB9
:109B6400704700BFB26A0300C20708B501460CD5AE
:109B74004FF0A0430322C3F84427C3F84827C3F88F
:109B84004C27C3F85027FFF7A7FF8B070AD54FF0E0
:109B9400A0430C22C3F83427C3F83827C3F83C2762
:109BA400C3F8402708BD4FF48C72002109F002B9B4
:109BB40020B100F58C730022984200D1704700F860
:109BC400012BF9E7C02AF0B541D0B2F5807F40D02F
:109BD400802A40F0C5800A230446036000F108038C
:109BE400520944F8043F01EB82028A4233D10368EC
:109BF4000C2B3ED00E2B6CD00A2B26D15A4D5B4930
:109C040000F1A006426955F8044B8768C2F30723A4
:109C14007C40CB5C6340140E10300C5D83EA04433B
:109C2400D4B20C5D83EA0463C2F307440C5D83EA97
:109C3400042350F8044C836063400468C3606340A9
:109C44000361534043618642DCD100208AE00C2347
:109C5400C2E70E23C0E78B784D781B0443EA052343
:109C64000D782B43CD7843EA056344F8043F04316F
:109C7400BBE73D4C3D4900F1C005C26954F8046B93
:109C84008768C2F307237E40CB5C7340160E1830FE
:109C94008E5D83EA0643D6B28E5D83EA0663C2F321
:109CA40007468E5D83EA062350F80C6C836073408C
:109CB40050F8086CC360734050F8046C036173403F
:109CC40006684361734083615340C3618542D4D1C4
:109CD400BBE7254D254900F1E006446A55F8042BFD
:109CE4008768C4F307237A40CB5C87695340220E0C
:109CF40020308A5C83EA0243E2B28A5C83EA02632C
:109D0400C4F307428A5C83EA022350F8142C83606C
:109D1400534050F8102CC360534050F80C2C03618E
:109D24005340DAB243618A5C7A401F0ECF5D82EA07
:109D34000762C3F30727C3F30743CF5DCB5C82EA13
:109D4400072282EA034350F8042C836153400268DB
:109D5400C36153400362634043628642BDD174E7EA
:109D64006FF01F00F0BD00BFBC7B0300BA6A0300A4
:109D74002DE9F04F47680D683B684C688E68C968E8
:109D8400DFF89882DFF898E2DFF898C25D407B68DC
:109D94005C40BB685E40FB684B4001688FB0491073
:109DA4000139009107F1300151F8107C0197EFB2AD
:109DB40051F8200C58F8277087EA00091F0E9548BF
:109DC4005EF8277089EA0709C4F307274FEA146B82
:109DD4005CF827705EF82BB089EA0709C6F30747D9
:109DE400203150F8277089EA0709E7B25FFA89F051
:109DF40058F82770029051F83C0C87EA000A2F0E9D
:109E040084485EF827708AEA070AC6F30727C4F372
:109E140007445CF827708AEA070AC3F3074750F837
:109E240027708AEA070AF7B2CAF30720039058F8A2
:109E3400277051F8380C474087EA0B07C3F3072B08
:109E440074485CF82BB087EA0B07C5F3074BDBB209
:109E540050F82BB058F8233087EA0B07C7F30740B4
:109E6400360E049051F8340C5EF82660C5F30725CD
:109E74004340684873405CF8256050F8244051F82A
:109E84002C0C059073406340C3F30740069051F8CF
:109E9400280C0790F8B20890C3F3072009901D0E10
:109EA400C9F30740DBB20A900D93009B4FEA1A6096
:109EB4000B90002B51F8240C0C905FFA8AF4C7F332
:109EC400072B4FEA1966CAF3074AC9F307294FEA71
:109ED40017675CDC5049039B019811F803C0029B8F
:109EE4000C5DCB5C43400498085C83EA0C2383EA52
:109EF4000043485D059D83EA006311F80B0013706D
:109F04006C4084EA00240698089D085C4D5D84EA50
:109F14000044885D079E84EA00640998085C7540E3
:109F240085EA00250A980C9E085C85EA00450B9892
:109F3400085C85EA00650D98085C704011F80960BA
:109F440080EA062011F80A60C95D80EA064080EACA
:109F54000161180A5070180C1B0E9070D370230AFC
:109F64005371230C93712B0A53722B0C93720B0AAB
:109F740014711572240E2D0E117353730B0C090EEC
:109F8400D471D5729373D1730FB0BDE8F08F029B77
:109F94005EF8255058F823301E4858F824405EF8DF
:109FA40027706B40019D6B40039D5CF825505D401C
:109FB400049B50F823305D405EF826305C40059BDE
:109FC4005C405CF82B305C40069B50F823305C40CE
:109FD400089B58F823600B9B5EF823305E40079B78
:109FE4005E40099B5CF823305E400A9B50F82330A6
:109FF4005E400D9B58F823307B400C9F7B405CF8FF
:10A0040029707B4050F82A707B40009F013F0097E5
:10A01400CAE600BFBC730300BA6A0300BC6B03004A
:10A02400BC770300BC6F03002DE9F04F47680C6850
:10A034003B684E688D68C968DFF89C82DFF89CE253
:10A04400DFF89CC25C407B685E40BB685D40FB6897
:10A054004B4001688FB049100139009107F130017C
:10A06400E7B251F8100C58F82770019051F8200C01
:10A0740087EA0009370E96485EF8277089EA0709CF
:10A08400C3F307274FEA136B5CF827705EF82BB015
:10A0940089EA0709C5F30747203150F8277089EA90
:10A0A4000709DFB25FFA89F058F82770029051F877
:10A0B400340C87EA000A270E85485EF827708AEA7E
:10A0C400070AC5F30727C3F307435CF827708AEA36
:10A0D400070AC6F3074750F827708AEA070AEFB25F
:10A0E400CAF30720039058F8277051F8380C4740FA
:10A0F40087EA0B07C6F3072B75485CF82BB087EA91
:10A104000B07C4F3074BF6B250F82BB058F826608F
:10A1140087EA0B07C7F307402D0E049051F83C0C57
:10A124005EF82550C4F30724464069486E405CF845
:10A13400245050F8233051F8280C07906E405E40AC
:10A14400F8B251F82C3C0890C6F307200593099007
:10A15400CAF30743C9F3074006930A904FEA1A600B
:10A164000B9051F8240C0C90C6F307400D90009806
:10A174000028C9F3072B4FEA17634FEA1664F5B2B8
:10A184005FFA8AFAC7F307274FEA19695CDC514979
:10A194000398019E11F800C00298085C7040049E68
:10A1A4008E5D80EA0C2080EA06400E5D11F80B40BB
:10A1B40080EA06604E5D059D10706E4086EA0426B6
:10A1C400069C0C5D86EA0446CC5C099B86EA046422
:10A1D400CE5C089BCD5C079B5D400A9BCB5C85EA0B
:10A1E400062585EA03450B9B0C9ECB5C85EA03653B
:10A1F40011F80A307340CE5D83EA06230D9E8E5D0E
:10A2040011F8091083EA064383EA0163010A5170D5
:10A21400010C9170000E210AD0705171210C9171C2
:10A22400290A5172290C9172190A14711572240E9B
:10A234002D0E13735173190C1B0ED471D5729173B7
:10A24400D3730FB0BDE8F08F029E5EF8244058F837
:10A2540026601F485EF823305EF829905CF827706A
:10A264007440019E7440039E5CF826607440049E12
:10A2740050F82660744058F825605E40059B5E40A7
:10A284005CF82B305E40069B50F823305E40089B00
:10A2940058F823500B9B5EF823305D40079B5D40CC
:10A2A400099B5CF823305D400A9B50F823300C98DE
:10A2B4005D4058F82A3083EA090343407B400D98F7
:10A2C400034F57F82070009801387B400090C7E690
:10A2D400E4840300E47B0300E47C0300E4880300DB
:10A2E400E480030010B50129144621461A4603D11F
:10A2F400FFF73EFD002010BDFFF796FEFAE72DE9BB
:10A30400F041B2F5C07FADF5467D06468846154658
:10A3140079D84FF4D07200215EA808F04BFD18A83C
:10A32400FFF741FC64AF6BBA2A460024ADF88A31CA
:10A334004146302338468DF88F31ADF8884108F016
:10A3440010FD802304AA7B5511461935234602F8D3
:10A35400013B0133202BFAD14FF4807218A8FFF788
:10A3640031FC002410220021684608F023FDA84691
:10A374000DF287136A46A3F11007117817F8010F3D
:10A3840041409F4202F8011BF7D1B8F1100F6B4610
:10A3940094BFA8EB0808A8F110086A46012118A880
:10A3A400FFF7A0FF07F11003B8F1000FE2D10CABE7
:10A3B40018191022694608F0D4FC9DF87B3110343A
:10A3C4000133302C8DF87B31CCD14FF480720CA941
:10A3D40018A8FFF7F7FB06F1300414AB1A46012165
:10A3E40018A8FFF77FFF3046102214A9103608F092
:10A3F400B8FCB442F1D118A8FFF7DAFB00200DF540
:10A40400467DBDE8F0816FF03700F8E72DE9F043B1
:10A414008DB004460D4630220021684608F0CAFC7F
:10A42400002604F10F0904F120086F460DEB060322
:10A43400494600E001460A7808460132D2B200F8E3
:10A4440001290AB9A142F5D122460121404610361C
:10A45400FFF748FF302EE8D16B1E2F353A7813F8FA
:10A46400011F4A40AB4207F8012BF7D169464FF46C
:10A4740080724046FFF7A6FB102208A9204608F088
:10A4840070FC00200DB0BDE8F0834FF4A0720021F1
:10A4940008F090BC10B5044638B12030FFF788FBB3
:10A4A40004F5A07300229C4200D110BD04F8012BD6
:10A4B400F9E72DE9F0418369B3F5C07FE0B00446C4
:10A4C400884617462DD8C3F5C073934229D34FF459
:10A4D400C0720021684608F06DFCD4F83831A269D6
:10A4E400D4F83C01694698470546E8B9A669B8F12D
:10A4F400000F07D037B10DEB06003A46414608F08D
:10A5040030FC3E44324669466846FFF7F8FE694629
:10A514002046FFF77BFF01232361284660B0BDE896
:10A52400F0816FF03705F8E76FF03305F5E72DE9B3
:10A53400F041044688B0884617460021202204F1E1
:10A54400200568461E4608F035FC2846FFF72BFB1D
:10A554000F9BA36142F21073E3616946C4E94E871D
:10A564004FF480722846FFF72DFB0E9A31462046A1
:10A57400FFF79FFF08B0BDE8F08113B530240194C4
:10A58400049C0094FFF7D3FF02B010BD2DE9F04303
:10A5940091B0B2F5806F04460E4615469846189F52
:10A5A4004ED8B7F5807F4ED83022002104A808F099
:10A5B40001FC2269E3699A4201DC636943B13A46CA
:10A5C40041462046FFF775FF60B111B0BDE8F08346
:10A5D40047B141463A4604A8FFF791FE04A9204634
:10A5E400FFF714FF04F10F0704F1200845B904A98B
:10A5F4002046FFF70BFF2369013323612846E4E774
:10A604003A46137811460133DBB201F801390BB92C
:10A61400A24213D16B46224601214046FFF762FE57
:10A62400102DA94628BF4FF0100930464A46694606
:10A6340008F097FB4E44A5EB0905D7E70A46E0E787
:10A644006FF03500C1E76FF03700BEE707B50023B0
:10A654000093FFF79BFF03B05DF804FB28B139B109
:10A664000023C1E900301846704748F21050704783
:10A6740048F21350704730B1036848F240508B429F
:10A6840008BF0020704748F21050704730B119B12C
:10A694000B68934205D30A600020704748F21350B8
:10A6A400704748F2145070472DE9F041884600AFD6
:10A6B40006461146404615461C46FFF7CFFF08BB29
:10A6C40021464046FFF7CAFFE0B998F80430104A23
:10A6D40052F82380B8F1000F17D056B90D4A32F85A
:10A6E400133033B107336A46DB08A2EBC3039D463C
:10A6F4006E46224629463046C04718B9064B2B60A1
:10A70400063B2360BD46BDE8F08148F20350F9E7FB
:10A71400EC8C0300E48C03007652464D70B505467C
:10A724000C461E46FFF79AFF70B9AB796AB1B34283
:10A734000ED12979094B53F8213063B111462046D3
:10A74400984708B9064B236070BD48F21050FBE7E8
:10A7540048F21150F8E748F20350F5E7F88C03008B
:10A764007052464D2DE9F0410D460D4904461746F9
:10A77400FFF781FF90B966683946B2792846FFF73A
:10A7840085FF58B93279074B53F8223023B1294653
:10A794002046BDE8F041184748F20350BDE8F08177
:10A7A4007052464D048D0300F0B528B14079D9B1FB
:10A7B4008AB948F2135315E01846F8E7441E0025F9
:10A7C4004E5D0F5D575516550135013CA542F7D92D
:10A7D4001B1A014402448342F0D2002B48F2115266
:10A7E40018BF13461846F0BD48F21053FAE70000AC
:10A7F4002DE9F8430C4600AF81461E492046154614
:10A804001E46FFF738FF58BB1B492846FFF733FFA6
:10A8140030BBD4F804806B68984524D198F805209F
:10A82400396A3046FFF732FFD0B998F80430134A3A
:10A8340052F82380B8F1000F18D0B9F1000F0AD1F3
:10A844000F4A32F8133033B107336A46DB08A2EB00
:10A85400C3039D46E94633462A4621464846C04737
:10A86400BD46BDE8F88348F24150F9E748F2035089
:10A87400F6E700BF7652464D7052464D108D0300E8
:10A88400188D0300F8B50A4F0A4C0B4DE41B012147
:10A89400E40829700026A64203D102232B7000206D
:10A8A400F8BD57F8363098470028F9D10136F2E759
:10A8B4001C6103002461030098340020054B1A78BE
:10A8C400022A04D01878431E584258417047012088
:10A8D400704700BF9834002030B50023934201D163
:10A8E400012006E0C55CCC5CA54203D08CBF0120EE
:10A8F400002030BD0133F1E72DE9F74F1E469DF8E6
:10A904003030019305468846174600239E424FEA9D
:10A91400C30403F1010248D1FF23D2005B0033F0EA
:10A92400FF0102D10134A242F8D1002D42D0002E01
:10A9340043D0B8F1000F43D0002F41D032464146F6
:10A944003846FFF7C9FF00283DD04FEAD409FF235A
:10A9540004F0070423415BB205EB090A00931B488A
:10A96400019B00683246294601F0AEFD8346C0B91A
:10A9740001464A46284608F01DFA2CB19AF80020F0
:10A98400009B1A408AF80020324641462846FFF7C9
:10A99400A3FF0028E3D029463846FFF79DFF00288F
:10A9A400DDD0584603B0BDE8F08FFB5C002BB4D17A
:10A9B4001346ABE748F2135BF3E748F2145BF0E7A6
:10A9C40048F2105BEDE748F2175BEAE7E835002050
:10A9D40013B501240094FFF78FFF02B010BD0000EF
:10A9E40070B51B4B6A469A4206460D4605D3FFF7DF
:10A9F40065FF78B94FF4054070BD164B16481749EA
:10AA0400C01AC008000440F00100FCF73BF848F20B
:10AA14001950F1E7124C236823B1124B1A68124BF8
:10AA24009A420FD086B97DB910481149206001F0CF
:10AA340027FD0028E0D10B4B0B4A1A6023680D4A0E
:10AA44001A60D9E70020D7E748F21750D4E700BFCF
:10AA540000E0002024610300546103001C8D030006
:10AA6400E8350020E03500206572E54B9C34002079
:10AA7400E43500206169614D094B0A4A1968914225
:10AA84000AD1094A1068094A0168914204D1002296
:10AA940002601A6001F010BD48F20250704700BF16
:10AAA400E03500206572E54BE83500206169614DB1
:10AAB40010B51346154A6C4694420ED3D3B9144AC2
:10AAC4001468144A94421AD1E0B913480A4600683B
:10AAD4001249BDE8104001F0FFBC114B1148124966
:10AAE400C01AC008000440F00100FBF7CBFF48F295
:10AAF400195010BD0029E2D148F21050F9E748F28C
:10AB04000250F6E748F21750F3E700BF00E00020D8
:10AB1400E03500206572E54BE8350020E43500207F
:10AB240024610300546103001C8D03002DE9F041EE
:10AB34000D4617460446F0B109B3144B1A68144B7A
:10AB44009A421FD1134E3B460A460146306801F033
:10AB5400BBFC48F2715398420FD1002211461046B3
:10AB6400FFF7A6FF48B93B462A4621463068BDE8B0
:10AB7400F04101F0A9BC48F21350BDE8F08148F25D
:10AB84001450FAE748F20250F7E700BFE03500201E
:10AB94006572E54BE83500200122FFF7C7BF10B509
:10ABA400436808309C689A79A047002010BD10B50E
:10ABB400034608465A6803F1080194689279A0474D
:10ABC400002010BD2023024A0249FFF701BF00BF45
:10ABD400448D0300648D030070B501F10805284617
:10ABE4001646FFF7EFFF044648B9294606F1080068
:10ABF40008F068F948F21653002818BF1C4620468E
:10AC040070BDF8B501F108060C4630462021174600
:10AC1400FFF7C2FF054680B9237A23F007032372A6
:10AC240094F8273003F07F0343F0400384F827307F
:10AC3400314607F1080008F04FFA2846F8BDF8B588
:10AC440001F108060C46304620211746FFF7A4FF01
:10AC5400054650B928343146204608F043FA2022EC
:10AC6400214607F1080008F07CF82846F8BD08B52D
:10AC740008320831184608F037F9002848F216500F
:10AC840008BF002008BD08B518460832083108F08E
:10AC940045F9002008BD000038B5074C051E04F135
:10ACA400080318BF1C4623682BB11A6822605B682E
:10ACB40028469847F7E738BDF435002020B9054BFE
:10ACC40001225A70FFF7E8BF012802D1014A9070AF
:10ACD400F8E77047EC35002020B9034B01225A7085
:10ACE400FFF7DABF704700BFEC35002038B50B4CD6
:10ACF400237883B90A486360A3602361E36000F0AA
:10AD0400B1F9054607F000FD08B900F0B7F90123D1
:10AD14002370284638BD8525FBE700BFEC350020AD
:10AD2400C1AC020037B50B4C00230DF107008DF8C0
:10AD34000730FCF7A3FDE368013BE360E56815B960
:10AD440000F0B0F9A5709DF80700FCF7BBFD03B057
:10AD540030BD00BFEC350020012813B509D018B16F
:10AD640003281CD002B010BD0F4B0122C3F8802071
:10AD7400F8E70E4C00230DF107008DF80730FCF7BF
:10AD84007DFD23780BB9FFF7B1FFE3689DF8070059
:10AD94000133E3600123A370FCF794FDE2E700F0C4
:10ADA4006DF9FFF7BFFFDDE700E100E0EC350020BF
:10ADB40031DF70471FB500238DF807000DF10F0038
:10ADC4008DF80F30FCF75AFD07F09EFC50B90DF1D9
:10ADD40007010848FEF7BFFB0648FEF7B0FB08B1C1
:10ADE40000F0F4FB9DF80F00FCF76CFD05B05DF876
:10ADF40004FB00BFF460030007B520B103280BD0A7
:10AE040003B05DF804FB0F4B1B78012BF8D100F065
:10AE1400DDFB00F0E3FBF3E700230DF107008DF801
:10AE24000730FCF72BFD07480378012B05D10649B1
:10AE3400013000F089FB00F0B7FB9DF80700FCF738
:10AE440041FDDDE750360020B9AD020013B5124CC8
:10AE54002378FBB9114A8DF80730002808BF104643
:10AE64000288A4F801200DF10700FCF707FD07F0A4
:10AE74004BFC30B90A49601C00F066FB40B900F095
:10AE840093FB01239DF807002370FCF71BFD0020B2
:10AE940002B010BD8520FBE7503600208A8D0300E8
:10AEA400B9AD020007B500230DF107008DF8073096
:10AEB400FCF7E4FC07F028FC18B900F087FB00F06D
:10AEC4008DFB9DF80700FCF7FDFC0448FEF7B9FB79
:10AED400034B00221A7003B05DF804FBF460030016
:10AEE400503600202DE9F7430024DFF8589005463A
:10AEF4000E46A0460DF107008DF80780FCF7BEFC56
:10AF040007F002FC074638B9324629464846FEF7A0
:10AF140078FB044600F048FB9DF80700FCF7D2FCE0
:10AF240047B131462846FFF743FF42F207039842F0
:10AF3400044605D0022CDDD0204603B0BDE8F083E2
:10AF44000524F9E7F4600300F8B505460C4604B996
:10AF5400F8BD402C264628BF4026F7B2394628467D
:10AF6400FFF7C0FF0028F9D1A41B3544EFE7000028
:10AF74001FB503788DF8003043680193037A8DF888
:10AF84000830C3680393054A054B684653F82130DB
:10AF940052F82110984705B05DF804FB54360020A0
:10AFA400583600201FB503788DF8003043680193AC
:10AFB40083688DF80830C3680393054A054B6846D7
:10AFC40053F8213052F82110984705B05DF804FB7E
:10AFD4005436002058360020F0B5184B077891F805
:10AFE4001DE043F82720164B16460A6943F827202C
:10AFF400144B03F807E00C4684460FCC89B06D4629
:10B004000FC594E80F0085E80F000497BEF1000F08
:10B014000AD0002E0C4A694608BF32460CF10400DF
:10B0240000F00EFE09B0F0BD002E084A694608BFC4
:10B0340032460CF10C0000F0E7FBF3E75836002031
:10B04400543600205C36002075AF0200A9AF020020
:10B0540000F18040002382B0036003680193019BE8
:10B0640002B07047044A137923B90121106091801A
:10B07400184670478520704760360020084B1A68D0
:10B08400D20706D4C02283F800230122C3F880210A
:10B094001A604FF080430122C3F81825704700BF9F
:10B0A40000E100E0044B01221A604FF08042D2F824
:10B0B4001834DB03FBD470470C000040124B1B68B0
:10B0C40010B573B14FF48070FFF7C2FF4FF08043A7
:10B0D4000122C3F808230D4B587910B95A711B6823
:10B0E40098470B4B1B6873B14FF48270FFF7B0FFA6
:10B0F4004FF080430222C3F80823044B01201B684D
:10B10400BDE81040184710BD000100406036002023
:10B114000401004000F1804000F5C040002382B0EB
:10B12400036003680193019B02B07047800000F143
:10B13400A040D0F8003723F44033C0F80037D0F8EB
:10B14400003743EA0141C0F800177047054B4FF040
:10B15400FF32072843F8202084BF1B1883F84820B7
:10B16400704700BF6836002010B5184C94F858306A
:10B1740053BB04F130032021FF22013911F0FF01F8
:10B1840003F8012BF9D1C8B2FFF7E0FF01310C2914
:10B19400F9D1042200210E4807F00CFE0D4BC02209
:10B1A40083F806234022C3F880214FF4BE701A604E
:10B1B400FFF7B0FF084B4FF00042C3F8042301230C
:10B1C40084F85830002010BD0820FCE768360020C1
:10B1D400BC36002000E100E000600040034B93F81F
:10B1E4005800003018BF0120704700BF68360020A7
:10B1F400F0B5374B1C1894F93040002C1C4664DA27
:10B204008D78C5F34005002D0BBF082300230C26C1
:10B214000826B34201D10420F0BD54F8237001374D
:10B224003FD1261844F8232086F8303015B9E218A7
:10B2340082F848008A78550713D4D60733D582009C
:10B2440002F1A042D2F8005725F00205C2F80057D7
:10B25400204EC50800F007070122BA40775D3A4343
:10B2640072558A780D7812F0020225D09B0003F102
:10B27400804303F5C0430202D3F8101521F447318B
:10B2840021F44071C3F810152D04D3F8101502F4FD
:10B29400F85205F440352A430A43C3F81025002028
:10B2A400BAE70133B5E74D7800F5E0724FF0A046F8
:10B2B400AD0046F82250CBE7083B234493F85010E6
:10B2C40041EA851583F85050E9E70820A4E700BF58
:10B2D40068360020BC36002038B51F4C251895F977
:10B2E4003020072A17DD224492F8481089090329DF
:10B2F4000CD14FF0A043D3F81035C34013F0010F25
:10B3040008BF0221BDE83840FFF710BF012914BF70
:10B3140003210221F6E7D3B2072B1CD8930003F1D3
:10B32400804303F5C043D3F8100540F00100C3F88F
:10B33400100502F14000800080B2FFF7EBFE51B12E
:10B3440095F9303054F823302BB1012303FA02F27B
:10B35400024BC3F8042338BD683600200060004067
:10B364004FF0A043D3F8103523FA00F000F00100A9
:10B37400704700002DE9F04F85B000245A4D019428
:10B384004FF48072012102F1804303F5C04390B26F
:10B394001B68012B06D1D5F804330B4202D0FFF70A
:10B3A400B9FE0C430432B2F5907F4FEA4101EAD171
:10B3B4004E4B1B68012B0AD14FF4BE70FFF7AAFE57
:10B3C4004FF0A04344F00044D3F81035019314F037
:10B3D400FF0F1AD0464F00250126344210D0AB008F
:10B3E40003F1804303F5C043D3F81005D3F81015D7
:10B3F40057F8253023B1C1F30141C0F30420984725
:10B404000135082D4FEA4606E7D1002C64DA002204
:10B414004FF0FF33CDE90223354D01274FF0000AE9
:10B42400344E54464FF0A04816F9012B531C46D015
:10B43400D2B222F0C0094FEAD90104A8084402F0AC
:10B44400070310F804CC07FA03F31CEA030F36D001
:10B4540005EB090C92099CF930C055F82CB0BBF1EE
:10B46400000F0AD1032A2AD10DF1080E1EF801C0DB
:10B474004CEA030C0EF801C001E0032AF4D009F5EC
:10B48400E07110F80C0C58F821101842C1F3014176
:10B4940005D0022913D1032A0BD1114604E0032954
:10B4A4000DD1032A05D102214846FFF73FFE01349E
:10B4B400E4B2BBF1000F02D011464846D8470AF166
:10B4C400010ABAF1040FAFD134B14FF0A043019A8D
:10B4D400D3F81035934202D105B0BDE8F08F019343
:10B4E400029B03939AE700BF006000407C61004028
:10B4F40068360020B8360020014B1B68184700BF8F
:10B50400C43600200E4B984237B50D4602D00020B9
:10B5140003B030BD00230DF107008DF80730FCF7B0
:10B52400ADF9084B1C7914B901221D601A719DF8FC
:10B534000700FCF7C7F9002CE9D01120E8E700BFA9
:10B5440000200040C436002010B5134C22780ABBFA
:10B55400124B1960037813F0010F114B1EBFD3F87F
:10B56400042542F00102C3F80425D3F8002222F096
:10B574000102C3F8002243780A4A5B01DBB282F875
:10B584000D334FF40053C2F880311360012323704C
:10B59400002010BD8520FCE7D0360020CC360020EA
:10B5A40000D0004000E100E0064B00221A6082B0A7
:10B5B4001B680193019B044B0122C3F804231A6006
:10B5C40002B0704700D1004000D00040024A01237D
:10B5D400C2F808335360704700D00040064A012384
:10B5E400C2F808335360054B4FF40052C3F880206F
:10B5F400034B00221A70704700D0004000E100E0C5
:10B60400D0360020074B00221A6082B01B680193D9
:10B61400019B054BD3F80805044B1B68C0B202B06C
:10B62400184700BF00D1004000D00040CC360020B5
:10B634000023435082B043580193019B02B07047EA
:10B644000A4610B54FF48E71FFF7F2FF136A916842
:10B65400C95C136A01331362C0F81C1510BD02469D
:10B6640008B54FF492710068FFF7E2FF4FF484715C
:10B674001068FFF7DDFF136801221A6008BD8B69AB
:10B684000A4610B54FF4847123B9FFF7D1FFD0F8FF
:10B69400183510BDFFF7CCFF536AD168D0F81805F0
:10B6A400C854536A01335362F3E700001FB5012302
:10B6B4008DF80030044BCDE90110D3E9001268463F
:10B6C400904705B05DF804FBD436002030B54C4AF1
:10B6D400D2F8043313F4007F85B015464FD0D2F866
:10B6E4002431002B4BD04FF492711046FFF7A0FF8A
:10B6F4004FF40173C2F80833424B93F8291009B987
:10B70400012151603E4902228DF80020D1F88024A5
:10B71400C1F8802403929A690292DA6801920022A5
:10B72400C3E906226846D3E9001290473448D0F8AA
:10B734001C315BB133490A6A4B699A420A464BD2BF
:10B7440091F82830002B47D1FFF77AFF2C4AD2F822
:10B75400443193B14FF4A2711046FFF769FF294BAE
:10B7640093F8291009B1012111609A692AB10022C4
:10B774009A61586AD968FFF799FF05B030BDD5F8CA
:10B7840004335B07D2D5D5F80831002BCED01D4C3D
:10B794001B482146FFF773FF636AA2699A42234656
:10B7A400C4D1E269E1684AB12369E3600023606AB5
:10B7B400A261E3616362FFF779FFB7E794F8292098
:10B7C4000AB901226A600E4A4FF40170C2F80803F4
:10B7D40000229A61586AEEE74FF48E710848FFF729
:10B7E40027FF51690029B1D00023029191688DF897
:10B7F4000030019153616846D2E900139847A5E7E8
:10B8040000200040D43600202DE9F8435A4B047937
:10B8140091462C2202FB0432064692F82A200D4659
:10B824009846002A40F0A38054490068FFF76AFE56
:10B834000746002840F09D8029683368481C0BD0D7
:10B844004FF0A04001228A40C0F8082501F5E072BB
:10B854004FF0030C40F822C06868421C1FBF00F57B
:10B86400E0724FF0A04C4FF0000E4CF822E0AA69B1
:10B8740095F814C0C3F824256A7DBCF1010F4CEA85
:10B884000202C3F86C25C3F81405C3F80C151DD1C6
:10B89400AA68511C1FBF02F5E0714FF0A0404FF0A1
:10B8A400000C40F821C0E968481C0BD04FF0A04CB4
:10B8B40001208840CCF8080501F5E0704FF0030E34
:10B8C4004CF820E0C3F80815C3F810252C23634373
:10B8D40008EB0302C2F804902A6948F80320B9F17E
:10B8E400000F31D04FF48E7130682D7FFFF7A0FE2A
:10B8F40030684FF4A271FFF79BFE3268204BC2F808
:10B904000433120B53B2002BA8BF03F160404FEA7B
:10B9140053134FEA4511BABF1A4802F00F0500F558
:10B9240061404FEA8303C9B203F16043B4BF415598
:10B9340080F8001303F5614302F01F02012101FAAC
:10B9440002F2C3F880211A6033680422C3F8002588
:10B954002C2303FB04830022C3E9062283F8292055
:10B964005A61012283F82A203846BDE8F883082763
:10B97400FAE71127F8E700BFD4360020D1B6020059
:10B984008000020014ED00E02DE9F047214F067914
:10B994004FF02C0909FB067480466569002D37D1E8
:10B9A4006261A16025624FF48E71006884F82850AA
:10B9B400FFF73EFED8F80000012383602146FFF71D
:10B9C4003FFE6368A14693B9D8F800A0226A636970
:10B9D4009A4212D3D8F80030D3F81C21002AFBD0A5
:10B9E4000122DA602C2303FB0676002373612846C8
:10B9F400BDE8F08794F8283043B9DAF81C31002BFD
:10BA0400F8D049465046FFF71BFEDFE70F25E9E76C
:10BA14001125ECE7D43600200379044A2C2101FBDC
:10BA240003235869003018BF01207047D436002022
:10BA34002DE9F843394E05792C2303FB05630746AA
:10BA44005C6824B103684FF40170C3F808032C2325
:10BA540003FB0563986950B1D86900283ED024B12E
:10BA64003B684FF40172C3F80423112433E09A6154
:10BA7400D9605862D8612C2303FB056393F82930FD
:10BA84001BB910B93846FFF7EAFD4FF02C0909FB42
:10BA940005683868D8F80430002B34D14FF4A2710B
:10BAA400FFF7C6FDC1463868D0F82431D0F8082124
:10BAB400D0F84441B2B90CB9002BF4D02C2202FBCB
:10BAC40005650022AA6123BB2CBB95F829103B68AD
