:020000022000DC
:1060000000000120756302005D6302005F6302000F
:106010006163020063630200656302000000000028
:1060200000000000000000000000000067630200A4
:1060300069630200000000006B6302006D630200F0
:10604000350603006F630200951303006F630200BF
:106050006F6302006F630200B51003006F630200FC
:106060006F6302006F6302006F6302006F630200E0
:106070006F630200B11703006F6302006F630200D9
:106080006F630200198802006F6302006F630200F1
:10609000598802006F6302007DFC03006F630200F9
:1060A0006F6302006F6302006F6302006F630200A0
:1060B0006F6302006F630200000000000000000038
:1060C0006F6302006F6302006F6302006F63020080
:1060D0006F6302006F6302006F6302000000000044
:1060E00000000000000000000000000000000000B0
:1060F00000000000000000000000000000000000A0
:10610000000000000000000000000000000000008F
:10611000000000000000000000000000000000007F
:10612000000000000000000000000000000000006F
:10613000000000000000000000000000000000005F
:10614000000000000000000000000000000000004F
:10615000000000000000000000000000000000003F
:10616000000000000000000000000000000000002F
:10617000000000000000000000000000000000001F
:10618000000000000000000000000000000000000F
:1061900000000000000000000000000000000000FF
:1061A00000000000000000000000000000000000EF
:1061B00000000000000000000000000000000000DF
:1061C00000000000000000000000000000000000CF
:1061D00000000000000000000000000000000000BF
:1061E00000000000000000000000000000000000AF
:1061F000000000000000000000000000000000009F
:10620000354936480A1A02D0072291438D4634494F
:1062100034480A1A06D00722914381F309880222E2
:1062200082F3148830483149314A00F044F831484B
:106230003149324A00F03FF831483249324A00F0E1
:106240003AF832483249334A00F035F83248334997
:10625000334A00F030F833483349344A00F02BF821
:1062600033483449344A00F026F83448344900228F
:1062700000F02CF833483449002200F027F8334866
:106280003349091A082902DB002202604160314AC1
:1062900090471F481F49884205D00268043003B464
:1062A000904703BCF7E700208646EC46002000211B
:1062B000294A9047FEE7884207D0521A05D0037852
:1062C00001300B700131013AF9D17047884202D098
:1062D00002700130FAE770470000012000E0002062
:1062E000000001200000012078AD0400AC2A00204D
:1062F000D02B0020D4630200D46302007C3704005A
:1063000078AD0400AC2A0020AC2A002040390400FB
:106310004039040040390400403904004039040089
:1063200040390400403904004039040078AD0400CD
:106330009CAE0400D02B0020D02B0020D02B0020BE
:10634000D1460020D4460020D4460020D446002068
:10635000D46600209D630200E54D0300FEE7FEE7E2
:10636000FEE7FEE7FEE7FEE7FEE7FEE7FEE7FEE705
:10637000704700BF1048804710484FF0070188431E
:1063800085460F4880470F48016841F4700101605D
:10639000BFF34F8FBFF36F8FFFF732BF0A480B4930
:1063A0000B4A884207D0521A05D0037801300B708F
:1063B0000131013AF9D170477163020000000120F8
:1063C000EDD0020088ED00E02C390400982A00206E
:0463D000AC2A0020D3
:1063D40000B585B00190019B002B0AD0074B43F018
:1063E40001030393019B9B010293039B029898472B
:1063F40000E000BF05B05DF804FB00BF50390400A5
:1064040000B583B00190019B002B0AD04FF47A7041
:10641400FFF7DEFF019B013B0193019B002BF5D1AC
:1064240000E000BF03B05DF804FB08B50FF01EFDEB
:1064340000BF08BD00B589B0039002910192019B91
:10644400002B33D00023079303230693029A079B60
:106454001344019A194600200FF0BAFC0590079ADC
:10646400059B13440793019A059BD31A0193059B3B
:10647400002B13D10F4B1B7883F00103DBB2002BED
:1064840013D10120FFF7BCFF069B013B0693069B3B
:10649400002B03D1074B00221A7007E0054B0122A1
:1064A4001A70019B002BD1D100E000BF00BF09B0DE
:1064B4005DF804FBD02B002000B585B00390029159
:1064C400054B00934023054A0299039800F012F803
:1064D40000BF05B05DF804FB39640200D42B002032
:1064E40082B0019000BF02B0704782B0019000BF3B
:1064F40002B0704700B5A1B00590049103920293D5
:10650400049806F0C2F8039B1593029B169300238C
:10651400179300238DF8603000231993229B1A935C
:1065240000231F930FA91F9B0822049806F086F9E5
:1065340008231F93119B1293BDF84030ADF84C30E3
:10654400BDF84230ADF84E3000238DF851309DF83F
:106554003C3003F00303DBB2012B26D10F9BC3F3C2
:1065640095231D939DF83C30C3F3C203DBB28DF831
:106574005030BDF83C30C3F38313DBB21C931C9B37
:106584009A0009A91F9B049806F058F91C9B9B00CC
:106594001F9A13441F9312AA09A915AB009313461B
:1065A4001C9A1D9800F06EFF2FE09DF83C3003F01C
:1065B4000303DBB2022B28D1BDF83E30C3F38913A9
:1065C4009BB21E939DF83C30C3F3C203DBB28DF83B
:1065D40050301E9B082B28BF08231B9307A91F9B21
:1065E4001B9A049806F02AF91F9A1B9B13441F93C5
:1065F4001E9A1B9BD31A1E9315AB12AA07A81B99AC
:1066040000F0E2FF1E9B002BE3D1049806F04CF847
:1066140000BF21B05DF804FB82B00190019BDB68F0
:1066240001225A7100BF02B07047000000B583B068
:106634004FF0FF330193FFF7F8FE0421084800F000
:106644003DFE0190019B002B03DA064941200DF029
:1066540019FB0348FFF7E0FF00BF03B05DF804FB3C
:106664001C3904006839040000B583B0019000911E
:10667400019B1B681B6800990198984700BF03B0F1
:106684005DF804FB00B583B00190019B1B685B6857
:106694000198984700BF03B05DF804FB00B583B0D0
:1066A4000190019B1B689B680198984700BF03B049
:1066B4005DF804FB82B001900B468DF80330019B1A
:1066C400DB689DF803201A7100BF02B0704782B0E6
:1066D4000190019BDB681B79184602B0704782B0B9
:1066E4000190019BDB6801225A7100BF02B0704720
:1066F40082B00190019BDB685B79184602B0704759
:1067040000B585B001900091154BFF229A60144B9F
:1067140000221A60124B00225A60114B0022C3F867
:1067240018240F4B0022C3F814240D4B002283F8C5
:1067340020240C4805F00EFF0390039B002B01D08E
:10674400039B08E0084806F013FB084A084BD31AD9
:10675400DB0802930023184605B05DF804FB00BF74
:106764007C2D002020380400E03904001C3904008A
:106774003C380400024A034BD31ADB08184670471E
:106784001C3904003C38040000B587B001900B4666
:106794008DF803309DF80330002B1FD0FFF7EAFF7C
:1067A40004900023059313E0059B9B000E4A1344B9
:1067B4000393039B1B881A46019B1B689A4204D1CE
:1067C400019B059A1A60002309E0059B0133059398
:1067D400059A049B9A42E7D3052300E00023184658
:1067E40007B05DF804FB00BFAC2A002000B585B0FB
:1067F40001900B468DF803309DF8032001AB114640
:106804001846FFF7C1FF0346002B07D1019BDB00AD
:10681400054A13440393039B1B6800E000231846B6
:1068240005B05DF804FB00BF3C38040084B001905F
:106834000B468DF80330019BDB00174A1344029387
:106844009DF80330013B032B1CD801A252F823F01E
:10685400656802006D680200756802007F680200C6
:1068640002238DF80F3011E004238DF80F300DE072
:10687400029B1B798DF80F3008E0029B5B798DF841
:106884000F3003E000238DF80F3000BF9DF80F3068
:10689400184604B0704700BF3C38040084B001902F
:1068A400009100238DF80F30019B1B7803F0040343
:1068B400DBB2002B24D0019B1B78C3F30103DBB2B2
:1068C400012B02D0022B0CD017E0009B1B68019A0D
:1068D4001288C2F38312D2B213449A1C009B1A602A
:1068E4000BE0009B1B68019A5288C2F3891292B292
:1068F40013449A1C009B1A6000BF01238DF80F30CB
:106904009DF80F30184604B07047000000B58BB0F6
:106914000023ADF826303E4804F0EDFB3D4804F07A
:10692400EAFB3D4B5B6804933B4B9B680693049ADC
:10693400069B134002339B00374A134404330893E5
:1069440004AB19460898FFF7A9FF0346002B09D0AA
:10695400049A069B134002339B002F4A13440433CA
:106964000893EDE700BF0023079311E0049B5A1C32
:106974000492069A1340079A920001A90A442649F0
:1069840002339B000B445B681360079B013307933E
:10699400079B012BEAD99DF80430C3F30103DBB252
:1069A400012B10D0022B1CD1BDF80A30ADF82630D3
:1069B400BDF80630C3F389139BB203339A08049BD2
:1069C4001344049313E0BDF80A30ADF82630BDF843
:1069D4000430C3F38313DBB21A46049B13440493B9
:1069E40005E00E494FF4BF700DF04CF900BF0948A3
:1069F40004F08DFB0590059B002B02D0049B064AF6
:106A04005360BDF8263018460BB05DF804FB00BF98
:106A140094310020903100207C2D0020F0390400B6
:106A240000B585B00021074804F09AFA0390039B4F
:106A34000293029B83F310030193019B184605B054
:106A44005DF804FB9831002000B589B003900291F1
:106A540001920093039B1B0C0793FFF7E1FF069041
:106A6400FFF788FE0246079B934204D3214940F274
:106A7400A3100DF007F9069B1904009B5A1C0A9BEE
:106A84001340079A0A431C4902339B000B445A6083
:106A9400009A0A9B134002339B00174A13440433A1
:106AA4000593039B03F00703D9B2059A137861F3A6
:106AB400C5031370019B03F00F03D9B2059A138821
:106AC40061F389131380029BC3F31501059A1368BC
:106AD40061F39F231360059A1378012161F3010385
:106AE4001370059A13786FF38203137000BF09B013
:106AF4005DF804FBF03904007C2D002000B58DB056
:106B04000390029113468DF80730039B02330A93D6
:106B140001238DF8273000238DF81B300DF11B0362
:106B2400184602F0EFF9404B1A68029B1A603E4B7C
:106B34009A683D4B59683C4B1B68CB1A134401338C
:106B44000B9314E00121394804F099FAFFF7DEFEB3
:106B540008900899354804F092FA334B9A68324BFE
:106B64005968314B1B68CB1A134401330B930A9AAF
:106B74000B9B9A42E6D89DF82730002B48D000237F
:106B840005939DF80730002B17D09DF8143001228F
:106B940062F301038DF814309DF8143043F00403BC
:106BA4008DF81430039B03F00F03DAB2BDF81430F0
:106BB40062F38913ADF8143016E09DF81430022204
:106BC40062F301038DF814309DF8143043F004038C
:106BD4008DF81430039BC3F309039AB2BDF8163041
:106BE40062F38F13ADF816300F4B1A680E4B9B6887
:106BF400134002339B000C4A134404330793059A51
:106C0400079B1A60084B1A680A9B1344064A1360D0
:106C14009DF81B30184602F08BF99DF82730184672
:106C24000DB05DF804FB00BF7C2D002098310020DE
:106C340000B587B00190244B93F82034002B02D187
:106C4400019B002B01D1019B39E0019819F091FCC3
:106C540003460133049304AA03A901231B4806F045
:106C6400A5F80346002B29D1039B049A01991846E1
:106C740019F001FC039A049B013B134400221A708F
:106C8400049B1946114806F011F90590059B002B49
:106C940004D00F4940F20A200CF0F4FF049B19467B
:106CA4000A4806F036F90590059B002B04D00849E4
:106CB40040F20E200CF0E6FF039B00E00023184690
:106CC40007B05DF804FB00BF7C2D0020E039040010
:106CD400F039040000B58BB005900491039202933F
:106CE4001F4B9B68079306AB012219460298FFF7D6
:106CF40005FF0346002B24D0069B0233099300238F
:106D0400089311E0089B9B00039A1A44099B591CA1
:106D1400099107990B401268114902339B000B44F7
:106D24005A60089B01330893089A029B9A42E9D35C
:106D3400069A079B00931346029A04990598FFF755
:106D440083FE074B93F82034002B05D000BF00F0DE
:106D5400AFF80346002BFAD100BF0BB05DF804FB7B
:106D64007C2D002000B583B0019000910023002207
:106D740000990198FFF7AEFF00BF03B05DF804FB74
:106D840000B587B0039002910192019B059305AA77
:106D9400012302990398FFF79DFF00BF07B05DF838
:106DA40004FB00B587B00390029101920093019B0C
:106DB4000493009B059304AA022302990398FFF706
:106DC40089FF00BF07B05DF804FB00B589B00390EC
:106DD400029101920093019B0593009B06930A9BE9
:106DE400079305AA032302990398FFF773FF00BFD3
:106DF40009B05DF804FB00B589B0039002910192DB
:106E04000093019B0493009B05930A9B06930B9BA1
:106E1400079304AA042302990398FFF75BFF00BFBA
:106E240009B05DF804FB00B58BB0039002910192A8
:106E34000093019B0593009B06930C9B07930D9B6A
:106E440008930E9B099305AA052302990398FFF75B
:106E540041FF00BF0BB05DF804FB00B58BB003909D
:106E6400029101920093019B0493009B05930C9B58
:106E740006930D9B07930E9B08930F9B099304AAFB
:106E8400062302990398FFF725FF00BF0BB05DF8B6
:106E940004FB0000054B5A68044B1B689A420CBF64
:106EA40001230023DBB21846704700BF7C2D00206D
:106EB40000B599B0FFF7EEFF0346002B01D0002385
:106EC400BCE19A4B0022C3F81824BFF34F8F974BB1
:106ED4005B680493954B9B681093049A109B134032
:106EE40002339B00914A13440433119300231793F4
:106EF4000023169300230F9304AB19461198FFF750
:106F0400CDFC0346002B19D0884BD3F81834002B42
:106F140014D1864B1A68049B9A4205D8834B1B688C
:106F2400824A5360002389E1049A109B1340023380
:106F34009B007E4A134404331193DDE70023159329
:106F440011E0049B5A1C0492109A1340159A920063
:106F540001A90A44754902339B000B445B68136022
:106F6400159B01331593159B012BEAD99DF8043029
:106F740003F00303DBB2022B40F09C80BDF8063023
:106F8400C3F389139BB20E93BDF80630C3F3891380
:106F94009BB2502B28BF50239BB20D930D9BC3F380
:106FA40009039AB2BDF8063062F38F13ADF80630C8
:106FB4000D9B08330C939DF80430C3F3C203DBB27A
:106FC4000F930C995A4805F0D0FA1790179B002B91
:106FD40000F0D080179805F058FB01A9169B0822F1
:106FE400179805F00DFC169B08331693049BDA439F
:106FF400109B134001339B000B930D9A0B9B9A42F9
:1070040042D90B9B002B08D0049A109B13400233E7
:107014009B00464A1344043300E0464B0A930B9BFF
:10702400002B02D00B9BDBB201E00D9BDBB28DF891
:1070340027300B9B002B01D03E4B00E0002308932C
:107044000B9B002B06D00D9BDAB20B9BDBB2D31A41
:10705400DBB200E000238DF81F309DF82720169B3B
:107064000A99179805F0CCFB9DF82730169A13441B
:107074001693089B002B16D09DF81F20169B089989
:10708400179805F0BDFB0EE0049A109B13400233E1
:107094009B00264A134404330693169B0D9A0699C3
:1070A400179805F0ADFB0E9B03339A08049B134419
:1070B40004935FE09DF8043003F00303DBB2012B7B
:1070C40058D1BDF80430C3F38313DBB2062B28BFB9
:1070D4000623DAB2BDF8043062F38913ADF8043044
:1070E400BDF80430C3F38313DBB2023305939DF878
:1070F4000430C3F3C203DBB20F93059B9B00194614
:107104000B4805F032FA1790179B002B32D01798D2
:1071140005F0BBFA01A9169B0822179805F070FB2D
:10712400169B08331693002315931AE07C2D002038
:1071340020380400882D0020049B5A1C0492109AC5
:10714400134002339B003F4A1344191D169B04222B
:10715400179805F055FB169B04331693159B0133C2
:107164001593BDF80430C3F38313DBB21A46159BA1
:107174009342E1D3179B002B40D0324BD3F8103409
:107184001493304BD3F81834002B1BD0179805F008
:107194008BFA4DE000238DF84F301498FFF7A8FACE
:1071A4000346002B02D001238DF84F309DF84F3059
:1071B400002B03D017991498FFF756FA149BDB6839
:1071C4001B681493149B002BE4D1179805F06CFAF8
:1071D40000238DF803300DF10303184601F092FEED
:1071E400184BD3F81834002B02D1049B154A536072
:1071F4009DF80330184601F09BFE19E0114BD3F8BB
:107204001034129306E01298FFF748FA129BDB68D9
:107214001B681293129B002BF5D10B4A0B4BD31A0C
:10722400DB081B0443F0020309491846FFF79AFDE3
:10723400FFF730FE034683F00103DBB2184619B0B2
:107244005DF804FB7C2D00206C3804003C380400FD
:10725400603A040000B585B00023039323E0164B85
:10726400D3F81034029301238DF807300FE002980D
:10727400FFF72DFA03461A46039B934203D10023DA
:107284008DF8073006E0029BDB681B680293029BC3
:10729400002BECD19DF80730002B01D0039B07E0B5
:1072A400039B01330393039B092BD8DD4FF0FF337A
:1072B400184605B05DF804FB7C2D002000B585B0B0
:1072C40001900B468DF80330FFF7C4FF0390039B36
:1072D400B3F1FF3F01D1039B22E0039BDBB21946CC
:1072E4000198FFF7E7F9104BD3F81034002B08D1BD
:1072F4000D4A019BC2F81034019BDB6800221A601E
:107304000DE0094BD3F81034DA68019BDB6812688E
:107314001A60054BD3F81034DB68019A1A60039B9A
:10732400184605B05DF804FB7C2D002000B583B041
:107334000C4BD3F8103401930A4B012283F8202418
:1073440009E00198FFF7CBF90198FFF79BF9019B3E
:10735400DB681B680193019B002BF2D100BF03B0D3
:107364005DF804FB7C2D002082B00190009100BFE9
:1073740002B0704710B584B003900291039BDB8880
:10738400002B0AD0039BDB881A461F4B009313463D
:107394001E4A1F49029804F003F8039B1B7A052B2D
:1073A4002ED0039B5B7A002B12D0039B9B881A463A
:1073B400039B1B7A19461046FFF738FA03461A4610
:1073C400144B53F822301A461349029803F0E8FF8D
:1073D400039B1B6819460298FFF7C6FF039B1B7AA1
:1073E4001A460E4B53F82240039B9B8800211846F3
:1073F400FFF7FCF9034622460949029803F0D0FF3F
:1074040000BF04B010BD00BF943A0400A43A0400C5
:10741400DC3A0400C82A0020F43A0400B42A00200C
:10742400F83A040000B585B00390029113468DF834
:107434000730039B1B7A052B0FD0039B5B7A002B31
:1074440006D00D4B1B681A460C49029803F0A8FF9E
:107454000B49029803F0A4FF07E09DF80730002BC6
:1074640003D00749029803F09BFF029803F076FFCC
:1074740000BF05B05DF804FBC82A0020F43A0400FC
:10748400043B040030B58BB0079006910592049339
:107494000E9B1B7B8DF827300E9B00221A730E99CE
:1074A4000498FFF767FF059B062B7FD801A252F8CB
:1074B40023F000BFD5740200DF740200EF740200F1
:1074C40003750200217502004975020079750200F6
:1074D40007990E9803F064FF69E0069B1B681A463F
:1074E40007990E9803F05CFF61E0069B1A68069BFF
:1074F40004331B6807990E9803F052FF57E0069B6C
:107504001A68069B04331968069B08331B680093AA
:107514000B4607990E9803F043FF48E0069B196851
:10752400069B04331868069B08331B68069A0C32C2
:1075340012680192009303460A4607990E9803F0D5
:107544002FFF34E0069B1868069B04331C68069BD7
:1075540008331B68069A0C321268069910310968C0
:107564000291019200932346024607990E9803F074
:1075740017FF1CE0069B1C68069B04331D68069BD2
:1075840008331B68069A0C32126806991031096890
:1075940006981430006803900291019200932B46E0
:1075A400224607990E9803F0FBFE00E000BF00227C
:1075B4000E990498FFF736FF0E9B9DF827201A7347
:1075C40000BF0BB030BD00BF00B587B0039002917F
:1075D40001920093029B082B5CD8009B1B7B8DF8C7
:1075E4001330009B00221A7300990198FFF7C2FE22
:1075F4000023059314E0059A029B9A4209D2039A48
:10760400059B13441B781A462449009803F0C8FECE
:1076140003E02349009803F0C3FE059B013305935F
:10762400059B072BE7D91F49009803F0B9FE0023F7
:10763400059322E0059A029B9A4217D2039A059B6E
:1076440013441B788DF812309DF81230184618F048
:107654002FFE0346002B02D09DF8123000E02E23AB
:107664001A461149009803F09BFE03E00F49009865
:1076740003F096FE059B01330593059B072BD9D98F
:10768400012200990198FFF7CDFE009B9DF813207D
:107694001A7300E000BF07B05DF804FB083B040068
:1076A400103B0400143B0400183B04001C3B040082
:1076B4002DE9F04790B0099000238DF83F30A8E001
:1076C400594B1A689DF83F30DB0013440E930E9B10
:1076D4001B7818464FF001034FF00004A0F120027C
:1076E400C0F1200104FA00FA03FA02F24AEA020A9B
:1076F40023FA01F14AEA010A03FA00F9CDE90C9AE6
:107704004A4BD3E90012DDE90C3401EA030000908E
:1077140002EA04030193DDE90034234374D0DDE974
:107724000C34DA430292E3430393404BD3E900342D
:10773400DDE9020102461A4004920A4602EA040301
:1077440005933A4BDDE90412C3E900120E9B1B7842
:10775400184609F093FC03468DF82F300E9B1B78D6
:1077640018464FF001034FF00004A0F12002C0F1CD
:10777400200104FA00F603FA02F2164323FA01F197
:107784000E4303FA00F52A4BD3E9003405EA030259
:10779400069206EA040307939DF82F104FF00002A7
:1077A4000E9B1B781C46A4F12003C4F1200002FAAE
:1077B40004F801FA03F348EA030821FA00F048EA5E
:1077C400000801FA04F7DDE90634444508BFBB426A
:1077D4001AD19DF82F200E9B5B78012B0CBF01233F
:1077E4000023DBB29A420CBF01230023DBB20A93CD
:1077F4000E9B5B68002B07D00E9B5A680E9B187873
:107804000A9BDBB2194690479DF83F3001338DF84F
:107814003F30084B1A789DF83F309342FFF450AF45
:1078240000BF10B0BDE8F087A0310020D83100209F
:10783400D0310020A43100202DE9F04790B00B9006
:107844000B468DF82B304FF001034FF000040B98DA
:10785400A0F12002C0F1200104FA00F603FA02F2BA
:10786400164323FA01F10E4303FA00F5CDE90E564F
:10787400394B184601F08AF80D900D9B002B66D108
:10788400364BD3E90012DDE90E3401EA030000901F
:1078940002EA04030193DDE90034234343D10B9846
:1078A40009F0ECFB0346002B10D02D4BD3E900125A
:1078B400DDE90E3441EA0300029042EA0403039333
:1078C400274BDDE90212C3E9001213E0DDE90E34AF
:1078D4006FEA03096FEA040A214BD3E9003409EA89
:1078E400030204920AEA040305931D4BDDE9041222
:1078F400C3E90012194BD3E90012DDE90E3441EA61
:107904000300069042EA04030793144BDDE90612D0
:10791400C3E900121048134B1B680022194601F0FA
:1079240003F80D9014E0DDE90E34DF436FEA040838
:107934000A4BD3E9003407EA0302089208EA040375
:107944000993064BDDE90812C3E9001200E000BF09
:1079540010B0BDE8F08700BFAC310020D831002062
:10796400D0310020A831002010B58AB003900B4616
:1079740001928DF80B30019B042B01D807235AE0A8
:1079840009F06EFA034683F00103DBB2002B09D041
:1079940009F014FA0990099B0893089B002B01D065
:1079A400089B48E0254A039B1360254A9DF80B3049
:1079B4001370244A019B1360234A4FF000034FF0D5
:1079C4000004C2E90034214A4FF000034FF00004E0
:1079D400C2E9003422E09DF80B30DB00039A134423
:1079E400079305AB00210A461A800A469A700323BE
:1079F4008DF81430079B9B788DF81530079B1B7806
:107A0400184605AB124A194609F036FA0990099B43
:107A14000693069B002B01D0069B0CE09DF80B30CF
:107A24005A1E8DF80B20002BD5D10A4A00210A4892
:107A340000F04AFF034618460AB010BDA0310020EA
:107A4400A4310020A8310020D0310020D8310020FA
:107A54003D780200B5760200203B040000B583B0F7
:107A6400114B1B68002B03D11049BA200CF00AF902
:107A7400002301930CE00C4B1A68019BDB001344B8
:107A84001B780121184609F071FA019B0133019317
:107A9400074B1B781A46019B9342ECD300231846EC
:107AA40003B05DF804FB00BFA0310020243B0400B8
:107AB400A431002086B003900291019201238DF835
:107AC40017309DF81730204A039B13601E4A029B0F
:107AD40053601D4A019B9360039B44F2010293424D
:107AE40013D0039B44F20202934221D1019B164A14
:107AF400D360154BDB681B881A46134B9A61124BF3
:107B0400DB685B68104AD36112E0019B0E4A136183
:107B14000D4B1B699B680C4A53610B4B1B691B681B
:107B2400094A9361084B1B695B68074AD36100BF2C
:107B340072B600BF9DF81730DBB2002BFAD162B6E3
:107B440000BF06B0704700BFE031002000B583B02D
:107B540002900091019244F2010071466A4600F0DD
:107B640003F803B000BD00BF30B58BB00790069199
:107B7400059272B6FFF7DAFB00BFFFF799F90346E7
:107B8400002BFAD1079B41F2010293421FD0079BBD
:107B940041F20102934203D8079B012B0BD061E011
:107BA400079B44F2010293422FD0079B44F2020246
:107BB400934218D056E0394A394BD31ADB081B04D8
:107BC40043F0010337491846FFF7CCF857E0334A2E
:107BD400334BD31ADB081B0443F001033249184624
:107BE400FFF7C0F84BE0059B09932C4A2C4BD31AA2
:107BF400DB081B0443F00100099B5B681A46099BE0
:107C04001B882A49FFF7CDF839E0059B0893234ADE
:107C1400234BD31ADB081B0443F00104089B9D6823
:107C2400089B9B68184605F0FBF903461846089B19
:107C34005B681946089B1B68069A0292019300919F
:107C440003462A461A492046FFF7EDF8134A144B17
:107C5400D31ADB081B0443F0010316491846FFF747
:107C640081F80CE00D4A0E4BD31ADB081B0443F0D9
:107C74000103069A10491846FFF782F800BF0F4B1C
:107C84001B6803F00103002B00D000BE059A06997F
:107C94000798FFF70FFF00BF0BB030BD6C3804002E
:107CA4003C3804008C3B0400AC3B0400D03B040093
:107CB400EC3B0400143C0400283C0400F0ED00E01C
:107CC40084B00190019B9B680393019BDA68039B3A
:107CD400D31A184604B0704782B001900B468DF851
:107CE4000330019B1A68019BDB68019989880B406A
:107CF40013449DF803201A70019BDB685A1C019BF6
:107D0400DA6000BF02B0704784B003900B46019262
:107D1400ADF80A30039B1A68039B9968BDF80A30D2
:107D24000B44039989880B4013441A78019B1A70F9
:107D340000BF04B0704700B583B001900091009A71
:107D440000210198FFF7E0FF019B9B685A1C019BEF
:107D54009A6000BF03B05DF804FB84B00390029105
:107D64001346ADF80630029B002B01D10E231DE013
:107D7400BDF80630002B07D0BDF806305A1EBDF8FA
:107D840006301340002B01D009230FE0039B029A15
:107D94001A60BDF80630013B9AB2039B9A80039B9C
:107DA40000229A60039B0022DA600023184604B084
:107DB400704700B583B001900B468DF803300198ED
:107DC400FFF77EFF0246019B9B889A4207D89DF8E5
:107DD400033019460198FFF77FFF002300E00423D6
:107DE400184603B05DF804FB00B583B00190009120
:107DF4000198FFF765FF0346002B05D00099019811
:107E0400FFF799FF002300E00523184603B05DF84F
:107E140004FB000082B003468DF807309DF807305C
:107E240003F01F0205499DF907305B09012000FAA0
:107E340002F241F8232000BF02B0704700E100E0E5
:107E440082B003468DF807309DF8073003F01F0217
:107E540006499DF907305B09012000FA02F220333C
:107E640041F8232000BF02B0704700BF00E100E0EA
:107E740082B003468DF807309DF8073003F01F02E7
:107E840006499DF907305B09012000FA02F24033EC
:107E940041F8232000BF02B0704700BF00E100E0BA
:107EA40082B003468DF807309DF8073003F01F02B7
:107EB40006499DF907305B09012000FA02F260339C
:107EC40041F8232000BF02B0704700BF00E100E08A
:107ED40082B0034600918DF807309DF90730002BDE
:107EE4000CDA009BDAB20C499DF8073003F00F035B
:107EF400043B5201D2B20B441A7609E0009BDAB279
:107F040006499DF907305201D2B20B4483F800238D
:107F140000BF02B0704700BF00ED00E000E100E0E8
:107F240000B585B00190019B002B0AD0074B43F0AC
:107F340001030393019B9B010293039B02989847BF
:107F440000E000BF05B05DF804FB00BF403C040046
:107F540000B583B00190064A019BC2F8083506219A
:107F64001120FFF7B5FF00BF03B05DF804FB00BFAD
:107F74000010014008B50D4B4FF48032C3F8442380
:107F84000A4B4FF48032C3F804231120FFF788FF13
:107F94001120FFF73FFF054B01221A602F20FFF746
:107FA400BFFF034B01221A7000BF08BD001001403F
:107FB4001E33002008B51120FFF742FF0E4B4FF48B
:107FC4008032C3F848230C4B4FF48032C3F80823A3
:107FD400094B01225A602F20FFF7A2FF064B012212
:107FE4009A60064B00221A602F20FFF799FF044B7A
:107FF40000221A7000BF08BD001001401033002099
:108004001E330020024BD3F804351846704700BFD6
:108014000010014082B001900091019A009BD31A94
:1080240023F07F43184602B07047000082B00190ED
:10803400034A019BC2F8403500BF02B0704700BF3D
:108044000010014086B00190284B1B68002B03D11F
:10805400264A019B136045E0019B1A68234B1B6869
:108064001B689A4210D8214B1B681968019B1A6837
:108074001E4B1B688A1A1A601C4B1A68019BDA6132
:108084001A4A019B13602DE0019B1B680393174B55
:108094001B680593154B1B68049309E0049B1B683C
:1080A400039AD31A0393049B0593049BDB690493FB
:1080B400049B002B04D0049B1B68039A9A42EDD8BE
:1080C400049B002B05D0049B1A68039BD21A049BC3
:1080D4001A60019B039A1A60019B049ADA61059B5A
:1080E400019ADA6100BF06B0704700BF0C3300206C
:1080F40000B587B001902A4B1B680393284B1B687B
:108104000593059B049308E0049A019B9A4208D0C6
:10811400049B0593049BDB690493049B002BF3D11C
:1081240000E000BF049B002B01D1002333E0059A3B
:10813400049B9A4214D11A4B1B68DB69184A1360DA
:10814400174B1B68002B0BD1164B01229A60164B60
:1081540000221A60154B01221A702F20FFF7E0FE4F
:10816400049B1B680293049BDA69059BDA61059BF7
:10817400DB690493049B002B05D0049B1A68029BC3
:108184001A44049B1A60064B1B68039A9A4214BF54
:1081940001230023DBB2184607B05DF804FB00BFDF
:1081A4000C33002000100140103300201F33002046
:1081B40008B51120FFF75CFE00BF08BD08B5142008
:1081C400FFF756FE00BF08BD00B583B00190019BC8
:1081D4005B69019A92691046984700BF03B05DF845
:1081E40004FB000000B585B02B4B1B68002B4ED060
:1081F40000230193FFF706FF0246284B1B6819462C
:108204001046FFF707FF0290234B1B6803931DE002
:10821400039B1B68029A9A421CD3039B1B68029A15
:10822400D31A0293039B1B68019A13440193039B83
:108234000093039BDB690393009B1B7C002B05D0FD
:10824400009B00221A740098FFF7BEFF039B002BCB
:10825400DED100E000BF124B1A78124B1B789A4211
:108264000CD1104B1B780133DAB20E4B1A700D4B44
:108274001B78022B02D10B4B00221A70094B1B787E
:108284001946094A019B42F82130FFF797FF00BFC6
:1082940005B05DF804FB00BF0C3300201033002050
:1082A4001C3300201D3300201433002082B00190C1
:1082B400184B1A78184B1B789A4223D0154B1B780D
:1082C4000133DAB2134B1A70124B1B78022B02D112
:1082D400104B00221A700F4B1B781A460F4B53F8A1
:1082E4002220019B1A60019B1A680D4B1B681344E2
:1082F4000B4A13600A4B1B6823F07F43084A136040
:10830400012303E0019B00221A600023184602B0F7
:10831400704700BF1C3300201D330020143300209D
:108324001033002088B00390029101920023079338
:1083340038E0204B1B680693069B1B68039A9A42FD
:1083440006D2069B1A68039BD21A069B1A602DE07C
:10835400069B1B68039AD31A0393069B1B68079A10
:1083640013440793069B00221A60124B1B68059363
:10837400069BDB690F4A1360069BDB68002B11D058
:10838400029A079B134423F07F42069B5A60069B84
:10839400DA68069B9A60019B1A68069BDA61019B66
:1083A400059A1A60034B1B68002BC2D100BF08B0AA
:1083B400704700BF0C33002000B589B00190002342
:1083C4008DF81F30664B1B680593AAE0019B002BB8
:1083D40005D0019B0693069BDB69019361E0614B29
:1083E4001B781A4613465B001344DB005D4A1344B2
:1083F400043304935B4B1B780133DAB2594B1A7084
:10840400584B1A78574B9B789A4202D1554B00220D
:108414001A70049B5B680693049B1B78022B04D0A0
:10842400032B1BD0012B1FD01DE0049B5B68184657
:10843400FFF75EFE0346002B02D001238DF81F30A8
:10844400069B00221A746CE0454B1B680393039B44
:1084540000221A74039BDB69414A1360404B1B687A
:10846400002BF1D15DE05CE000BF069B1B7C002B80
:1084740000D056E0049B9A68069B5A60049BDA6815
:10848400069B9A60049B1A69069BDA60049B5A69EE
:10849400069B9A61344B1B78002B02D0069B00226A
:1084A4005A60069B5A68314B1B68D31A23F07F43EA
:1084B4002F4A93420ED8069B5A682C4B1B681946C8
:1084C4001046FFF7A7FD0246069B9B681A44069BCD
:1084D4001A6017E0254B1A68069B5B68194610461C
:1084E400FFF798FD0290069B9B68029A9A4206D277
:1084F400069B9A68029BD21A069B1A6002E0069BAE
:1085040000221A60069B00225A60069B00229A6091
:10851400069B01221A74069B0022DA610698FFF773
:1085240091FD019B002B7FF451AF0E4B1A780D4B3C
:108534005B789A427FF44AAF9DF81F30002B04D138
:10854400074B1B68059A9A4201D0012300E00023DF
:1085540003F00103DBB2184609B05DF804FB00BF69
:108564000C330020003200201F3300201033002081
:10857400FEFF7F0010B588B00190274B1B68002BCD
:1085840044D0254B1B681B680793FFF73BFD0690FF
:10859400224B1B68059305990698FFF73BFD03469C
:1085A400033304931E4B1B7883F00103DBB2002BCF
:1085B40001D0FFF7DFFC049A079B934238BF1346B0
:1085C400059A13440593059B23F07F43059305986F
:1085D400FFF72CFDFFF716FD039006990398FFF7AC
:1085E40019FD0346DC1C06990598FFF713FD0346A5
:1085F4009C420DD9FFF706FD03461846FFF716FD0A
:108604002F20FFF78DFCFFF7D3FD01E0FFF7D2FC2D
:1086140000BF08B010BD00BF0C3300201033002091
:108624001E33002000B587B00023019300238DF88A
:108634001730194B1B680493184B1B6803936B4644
:108644001846FFF733FE03468DF80B309DF80B30C8
:10865400002B08D0009B01AA04991846FFF762FE7C
:1086640001238DF81730019B1846FFF7A5FE03463A
:10867400002B02D001238DF817309DF81730002B02
:1086840002D00398FFF776FF054B00221A7000BF53
:1086940007B05DF804FB00BF103300200C3300204A
:1086A4001F33002082B003468DF80730034A9DF83B
:1086B4000730537000BF02B0704700BF0032002083
:1086C40084B00190144B5B7801338DF80F30124B5A
:1086D4009B789DF80F209A4202D100238DF80F3029
:1086E4000D4B1B789DF80F209A4201D100230FE017
:1086F400019B9DF80F201A70074B5B781A461346AE
:108704005B001344DB00044A134404330293029BCA
:10871400184604B0704700BF0032002000B589B08D
:1087240003900291019200930023079300238DF894
:1087340016300DF11603184600F0E4FB0DF1170393
:108744001846FFF7BDFF0690069B002B02D10423B9
:10875400079318E0069B01221A70069B039A5A603D
:10876400FFF750FC0246069B9A60069B029ADA6069
:10877400069B019A1A61069B009A5A619DF817306C
:108784001846FFF78FFF9DF81630184600F0D0FB0F
:10879400079B002B01D1FFF711FD079B184609B079
:1087A4005DF804FB00B587B001900B468DF80330EB
:1087B4000023059300238DF80E300DF10E031846A7
:1087C40000F0A0FB0DF10F031846FFF779FF0490AA
:1087D400049B002B02D1042305930BE0049B9DF81A
:1087E40003201A70049B019A5A609DF80F301846B2
:1087F400FFF758FF9DF80E30184600F099FB059BD3
:10880400002B01D1FFF7DAFC059B184607B05DF891
:1088140004FB000008B50E4B0022C3F840210C4BAA
:108824000022C3F844210A4B0022C3F84821084B14
:108834000022C3F84C21064B0022C3F80021044B4C
:108844000022C3F80421FFF7CDFC00BF08BD00BF20
:108854000010014008B5FFF7E5FE00BF08BD0000A9
:1088640008B5FFF7A7FB134B00221A70114B002227
:108874005A70104B0B229A700F4B00221A600F4B48
:1088840000221A700E4B00221A701420FFF708FB06
:1088940006211420FFF71CFB1420FFF7BBFA00206D
:1088A400FFF756FBFFF7AEFB0246064B1A600023A8
:1088B400184608BD003200200C3300201C33002071
:1088C4001D3300201033002086B003900B46019224
:1088D4008DF80B30134B9B78002B01D108231EE03D
:1088E400019B002B01D1072319E0039B002B01D12D
:1088F400072314E0039B1B681B7C002B01D0082377
:108904000DE0039B1B680593059B00221A74059BCD
:108914009DF80B205A74059B019A5A61002318464E
:1089240006B070470032002000B587B00390029172
:108934000192039B0593144B9B78002B01D10823D0
:108944001EE0039B002B01D1082319E0029B042B9A
:1089540001D8072314E0059B5B69002B01D1082390
:108964000EE0059B5B7C012B01D1029B00E0002300
:108974000493019B049A02990598FFF7CFFE0346DE
:10898400184607B05DF804FB0032002000B585B03E
:108994000190019B03930D4B9B78002B01D108237D
:1089A40010E0019B002B03D0039B5B69002B01D1DA
:1089B400082307E0039B00221A7402210398FFF79F
:1089C400F1FE0346184605B05DF804FB00320020B2
:1089D40008B5FFF717FB0346184608BD00B583B07A
:1089E4000190009100990198FFF714FB0346184683
:1089F40003B05DF804FB000000B587B0039002915A
:108A040013468DF8073000230593039B1B781A4601
:108A1400114B9B5C002B09D0039B04339DF807206A
:108A2400029918460AF054F805900FE0039B1B784E
:108A34001A46094B9B5C002B08D1039B0C339DF811
:108A440007200299184609F0FFF90590059B18467E
:108A540007B05DF804FB00BF0437002000B585B003
:108A6400019000238DF80F30019B1B781A46114B9F
:108A74009B5C002B08D0019B043318460AF0D2F803
:108A840003468DF80F300EE0019B1B781A46094B04
:108A94009B5C002B07D1019B0C33184609F05CFA50
:108AA40003468DF80F309DF80F30184605B05DF879
:108AB40004FB00BF0437002000B587B00390029187
:108AC40013468DF8073000230593039B1B781A4641
:108AD400114B9B5C002B09D0039B04339DF80720AA
:108AE400029918460AF0B6F805900FE0039B1B782C
:108AF4001A46094B9B5C002B08D1039B0C339DF851
:108B040007200299184609F07FFA0590059B18463C
:108B140007B05DF804FB00BF0437002084B0019067
:108B2400019B9B680393019BDA68039BD31A184645
:108B340004B0704700B587B001900091019B1B7889
:108B4400012B04D0022B38D0002B47D05CE0019BD2
:108B54005B681B7819462E48FFF72BF90590059B97
:108B6400002B0AD001238DF80C30059B0493294B6C
:108B74001B6803AA104698470DE02548FFF7CEFF6F
:108B84000346002B07D000238DF80C30214B1B68C3
:108B940003AA104698471E48FFF7C0FF02461C4B25
:108BA4009B889A4205D801221B491C48FFF784FF81
:108BB4002AE01B4B01221A7026E002238DF80C30A8
:108BC400019BDB680493012213491448FFF774FFE7
:108BD400104B1B6803AA1046984715E01149124828
:108BE400FFF702F90346002B05D101220D490B487A
:108BF400FFF702FF07E003238DF80C30054B1B68D9
:108C040003AA1046984700BF00BF07B05DF804FBF5
:108C14002C3300202033002028330020EC2A0020AD
:108C240029330020243300203C33002030B591B098
:108C34000390029101928DF803303C4A019B13602A
:108C4400029B002B01D107236DE0029B1968029B54
:108C54005B689BB21A463648FFF77FF80F900F9B6C
:108C64000E930E9B002B01D00E9B5CE0029B996837
:108C7400029BDB689BB21A462E48FFF76EF80F90F2
:108C84000F9B0D930D9B002B01D00D9B4BE02A4BAA
:108C940004AC1D460FCD0FC495E80F0084E80F0007
:108CA400039B5B690A93039B1B7C002B14BF01236A
:108CB4000023DBB28DF824309DF803308DF82C307E
:108CC400039B5B7C002B01D00E2300E000238DF876
:108CD4002530039BDB680693039B9B680793039BE8
:108CE4001B680593039B5B68049304AB134A194602
:108CF400134807F0BFFA0F900F9B0C930C9B002BAB
:108D040001D00C9B0FE00F4B00221A70039B1B68D1
:108D1400B3F1FF3F06D001220B490948FFF7CCFE0F
:108D2400034600E00023184611B030BD2033002074
:108D34002C3300203C330020483C0400398B0200D3
:108D4400EC2A0020293300202833002000B587B006
:108D54000190019B002B03D11449C2200AF092FF19
:108D6400134B1B788DF8173001991248FFF73CF824
:108D740004909DF81730002B12D00D4B00221A706E
:108D840001220D490D48FFF797FE0390039B0293C0
:108D9400029B002B04D0054ACE210298FEF7D6FE92
:108DA400049B184607B05DF804FB00BF683C040050
:108DB400293300202C33002028330020EC2A002003
:108DC40000B585B003468DF807309DF80730194685
:108DD4001048FEF7EEFF0390039B002B15D10E48BD
:108DE400FFF73CFE034683F00103DBB2002B0CD0FB
:108DF4000A490848FEF7F8FF0346002B05D1012273
:108E040006490548FFF7F8FD0390039B184605B093
:108E14005DF804FB3C330020EC2A002024330020BE
:108E240082B0EFF310830093009B019372B6019B11
:108E3400184602B0704762B600BF704700B585B0EF
:108E44000190FFF7EDFF0390164B9B68002B1BD19D
:108E5400144B01229A60144BD3F88020134B134017
:108E6400104A1360104B114AC3F880200E4BD3F8FC
:108E740084300C4A53600C4B4FF0FF32C3F884200B
:108E8400019B00221A7002E0019B01221A70039BCD
:108E9400002B01D1FFF7CFFF0023184605B05DF882
:108EA40004FB00BF4C33002000E100E0FC06FFBDE2
:108EB40000B585B003468DF80730104B9B68002B36
:108EC40016D09DF80730002B12D1FFF7A9FF0390AD
:108ED4000B4A0A4B1B681360094A084B5B685360D2
:108EE400064B00229A60039B002B01D1FFF7A3FFDE
:108EF4000023184605B05DF804FB00BF4C33002086
:108F040000E100E000B583B0019000F02BF80346C7
:108F1400012B03D0054943200AF0B4FE0198FFF762
:108F24008DFF00BF03B05DF804FB00BFD43C040018
:108F340000B583B003468DF8073000F013F80346FC
:108F4400012B03D0064951200AF09CFE9DF80730FE
:108F54001846FFF7ADFF00BF03B05DF804FB00BF88
:108F6400D43C040084B0EFF305830193019BC3F365
:108F740008030393039B002B0DD1EFF31483009399
:108F8400009B0293029B03F00103002B0CBF0123FF
:108F94000023DBB200E00123184604B0704782B01E
:108FA4000190019B03F00303002B0CBF012300235A
:108FB400DBB2184602B0704700B585B001900023BB
:108FC40003930EE00A4A039B52F82330002B05D08A
:108FD400074A039B52F8233001989847039B0133B7
:108FE4000393039B032BEDD900BF05B05DF804FB8D
:108FF4006833002082B001900091019B1B78013BF3
:10900400052B61D801A252F823F000BF2990020079
:10901400319002005790020089900200A99002004A
:10902400C5900200009B00221A704EE0009B0122B2
:109034001A70019B1A89009B9A81019B9A88009B54
:10904400DA81019BDA68009B9A60009B00221A7403
:109054003BE0009B02221A70019B1A89009B9A81B3
:10906400019B9A88009BDA81019BDA68009B9A60D5
:10907400019B9B7D062B0CBF01230023DAB2009BCE
:109084001A7422E0009B03221A70019BDA88009B69
:109094009A81019B1A89009BDA81019BDA68009B03
:1090A4009A6012E0009B04221A70019BDA88009BEC
:1090B4009A81009B0022DA81009B00229A6004E0DE
:1090C400009B05221A7000E000BF00BF02B0704789
:1090D40084B001900091019B0393039A009B9A42F0
:1090E40006D2039B1B68B3F1FF3F01D0012300E0CC
:1090F400002303F00103DBB2184604B0704782B0CA
:109104000190019B5B8803339B00019A134418462A
:1091140002B0704700B583B0019000910198FFF749
:10912400EEFF0246009B934201D202230CE0019B16
:109134009B884FF6FF72934203D0019B1B88002B40
:1091440001D1012300E00023184603B05DF804FBBD
:1091540000B583B00190019B002B13D00D4BDB684D
:109164001A46019B93420DD30A4B1B691A46019B75
:10917400934207D80198FFF712FF0346002B01D052
:10918400012300E0002303F00103DBB2184603B01F
:109194005DF804FB982A002082B00190019B002B0B
:1091A40004D0019B1B680B4A934201D003230DE0BA
:1091B400019B04331B68084A934204D0074A934234
:1091C40003D1012302E0002300E00323184602B088
:1091D400704700BFDEC0ADDEFE011EF1FF011EF1CF
:1091E40084B00190002303930CE0039B9B00019A3D
:1091F40013441B68B3F1FF3F01D0002307E0039B36
:1092040001330393039BB3F5806FEED30123184618
:1092140004B0704782B003460A46ADF806301346E0
:10922400ADF80430BDF80620134913469B001344DF
:109234009B000B4408331A88BDF804301344ADF87E
:109244000430BDF806200C4913469B0013449B00D0
:109254000B440A331A88BDF804301344ADF80430C3
:10926400BDF8043040F2FF32934294BF012300233F
:10927400DBB2184602B070471834002084B0019065
:1092840000910A2303930023ADF80A3027E0BDF8C8
:109294000A20174913469B0013449B000B440433D4
:1092A4001B68009A9A4215D9BDF80A201049134642
:1092B4009B0013449B000B4404331B6803F5805349
:1092C400009A9A4206D200230393019BBDF80A2018
:1092D4001A8008E0BDF80A300133ADF80A30BDF851
:1092E4000A30012BD3D9039B184604B0704700BF42
:1092F4001834002000B589B0039002910192039BB9
:1093040003F580530693039B08330393029B0222C5
:109314001A80039B079332E006990798FFF7FAFE39
:1093240003468DF817309DF81730002B0AD1079BA0
:109334009A68184B1B689A4213D9079B9B68154A75
:1093440013600EE0019B002B02D0019B01221A70D6
:109354009DF81730022B04D1029B4FF480621A80CF
:1093640014E0029B1A88079B5B8813449BB2033367
:109374009AB2029B1A800798FFF7C1FE07900699DC
:109384000798FFF7A5FE0346002BC5D109B05DF889
:1093940004FB00BF7833002082B001900091009B51
:1093A4009B7D022B09D9019B1A89009BDB881344FE
:1093B4009BB203339AB2019B1A81019B5A89009B89
:1093C400DB88D31A9BB2033B9AB2019B5A8100BF3C
:1093D40002B0704700B583B0074B1B6819460023E1
:1093E40000930823054A064802F020FC0346184669
:1093F40003B05DF804FB00BF40340020A43D04002A
:10940400982A002000B585B00390039900230093A7
:109414000823044A044802F009FC0346184605B030
:109424005DF804FBAC3D0400982A002000B585B02B
:1094340003460091ADF8063000238DF80F30BDF8D7
:1094440006300333ADF80A30BDF80A3040F2FD327D
:10945400934201D909234AE00023ADF80C303BE0E4
:10946400BDF80C20244913469B0013449B000B4475
:109474001B78002B2BD1BDF80A20BDF80C30114607
:109484001846FFF7C7FE0346002B20D001238DF8B2
:109494000F30009BBDF80C201A80BDF80C20164933
:1094A40013469B0013449B000B440A331988BDF8F0
:1094B4000C20BDF80A300B4498B20F4913469B00A8
:1094C40013449B000B440A3302461A8008E0BDF89B
:1094D4000C300133ADF80C30BDF80C30012BBFD982
:1094E4009DF80F30002B01D0002300E0072318461D
:1094F40005B05DF804FB00BF1834002082B00346B9
:109504000A46ADF806301346ADF80430BDF8042021
:109514000D4913469B0013449B000B440A331A88DD
:10952400BDF80630D31A9BB2BDF80420033B98B2B1
:10953400054913469B0013449B000B440A3302461F
:109544001A8000BF02B070471834002008B501210A
:10955400024801F094FD0346184608BD7833002004
:1095640000B585B003460091ADF80630BDF806207D
:10957400224913469B0013449B000B4404331B688D
:1095840003F580530293009B1B680393039B002BFA
:1095940004D00398FFF7B3FD039023E0BDF8062041
:1095A400164913469B0013449B000B4404331B6869
:1095B4000833039316E002990398FFF7ABFD0346C3
:1095C400012B08D0022B0BD0002B0BD1009B039A4C
:1095D4001A6001230EE00398FFF791FD039001E068
:1095E400002307E002990398FFF772FD0346002B5E
:1095F400E1D10023184605B05DF804FB18340020BF
:1096040000B585B001900091019B5B681846FFF797
:109614009FFD0346002B19D0019B1A89244B1B89FB
:109624009A4213D1019B1A68019B5B689B689A421A
:109634000CD1019B5B6819460098FFF71FFE034697
:10964400002B0CBF01230023DBB22CE0009B002283
:109654001A8023E00023029310E0029B0393039BF0
:109664009A68019B1B689A4208D1029A019B5A602E
:109674000F4B1A89019B1A81012314E0009B1B885C
:1096840002AA11461846FFF76BFF0346002BE4D1EC
:10969400009B1B8801339AB2009B1A80009B1B8895
:1096A400012BD7D90023184605B05DF804FB00BF91
:1096B4004834002000B587B00390029101920093D2
:1096C400304B1B78DBB283F00103DBB2002B01D0FB
:1096D400022353E0019B002B02D0009B002B48D1B6
:1096E40005234BE0009B9B881946274A0B469B00A9
:1096F4000B449B0013441B78002B33D124E0009BC4
:109704001B680593039B002B06D0059B9A88039B3B
:109714001B889A4200D017E0029B002B06D0059BC1
:109724001A88029B1B889A4200D00DE0059B9A6818
:10973400019B1A60009B1A68019B5A60134B1A899B
:10974400019B1A81002319E0009B9B88009A114613
:109754001846FFF705FF0346002BD0D1009B0022DB
:109764001A6000E000BF009B9B8801339AB2009B03
:109774009A80009B9B88012BB4D90A23184607B012
:109784005DF804FB583300201834002048340020CE
:1097940000B585B00190084B0199184601F0CDFA47
:1097A40003901C220021039816F08EFE039B18469A
:1097B40005B05DF804FB00BF0834002000B583B099
:1097C4000190044B0199184601F0D0FA00BF03B090
:1097D4005DF804FB0834002000B583B00190054B0C
:1097E4000199184601F0D6FA0346184603B05DF80D
:1097F40004FB00BF0834002000B583B00190044B83
:109804000199184601F0DFFA00BF03B05DF804FBCC
:109814000834002008B50A4B1B68002B04D1094901
:1098240040F27A200AF02EFA0121054801F03FFCAB
:109834000346002B14BF01230023DBB2184608BDE6
:1098440060330020443D040000B587B00023059335
:109854000023ADF812300323ADF8103000238DF847
:109864000F300023ADF80C30EFE0BDF80C301A03D4
:109874007E4BDB68134402930298FFF78DFC03468A
:109884008DF807309DF80730012B00F09C80032BE6
:1098940002D0002B62D0D3E00298FFF7A1FC03466C
:1098A400002B3BD0724B1B68002B29D0BDF8122033
:1098B400704913469B0013449B000B4402221A7008
:1098C400BDF812206B4913469B0013449B000B44C4
:1098D4000433029A1A60BDF81220664913469B00AD
:1098E40013449B000B44083302221A80624ABDF8D9
:1098F40012305380BDF812300133ADF8123008E055
:109904005B4A029B13605A4B02229A8001238DF812
:109914000F30059B43F00103059391E0BDF810302F
:10992400013BADF81030BDF81220524913469B009C
:1099340013449B000B440433029A1A60BDF81220AE
:109944004C4913469B0013449B000B4403221A709A
:10995400BDF812300133ADF8123071E0BDF81220B9
:10996400444913469B0013449B000B4400221A7085
:10997400BDF812203F4913469B0013449B000B443F
:109984000433029A1A60BDF8122013469B00134454
:109994009B000833374A9918BDF8122013469B00E0
:1099A40013449B001033334A13441A460298FFF7BA
:1099B400A1FC059B43F002030593BDF8123001336B
:1099C400ADF812303CE09DF80F30002B25D0BDF8E7
:1099D4001220284913469B0013449B000B44022287
:1099E4001A70BDF81220224B1968224813469B00B6
:1099F40013449B00034404331960BDF812201D492D
:109A040013469B0013449B000B44083302221A8024
:109A1400BDF812300133ADF81230154A029B1360C1
:109A2400002216490298FFF765FC114B9B88022B14
:109A340001D1042300E00823059A1343059300BFD2
:109A4400BDF80C300133ADF80C30BDF80C30022BEE
:109A54007FF60BAFBDF81030012B01D8002305931E
:109A6400059BDBB2184607B05DF804FB982A00207A
:109A740040340020183400204834002044340020AE
:109A840000B587B003900291039B02229A75029954
:109A9400039B1A1D002300930423074802F0C6F811
:109AA4000590059B002B01D1002300E00E231846EE
:109AB40007B05DF804FB00BF982A002000B587B00A
:109AC40003900291039B1B69002B01D0032200E049
:109AD4000122039B9A75029B08331946039B03F1E9
:109AE4000C02002300930423064802F09FF805901B
:109AF400059B002B01D1002300E00E23184607B07C
:109B04005DF804FB982A002000B587B00390029109
:109B1400039B1B78032B01D1052200E00622039B43
:109B24009A75029B04331946039B03F10802002330
:109B340000930423064802F079F80590059B002B56
:109B440001D1002300E00E23184607B05DF804FBA2
:109B5400982A002000B587B003900B46ADF80A3070
:109B640003990023009304230C4A0D4802F05EF885
:109B74000590059B002B01D00E230BE0BDF80A20B5
:109B8400084913469B0013449B000B4410330122E5
:109B94001A700023184607B05DF804FBB43D0400B6
:109BA400982A00201834002000B589B0019002AB37
:109BB40000221A605A609A60019BDB6802930DF1DF
:109BC400160202AB11461846FFF71AFD0346002B96
:109BD40012D0039B0693069B9A88019BDA80069B0E
:109BE4001A88019B1A81039BBDF81620114618465A
:109BF400FFF7B0FF079001E00A230793079B18467D
:109C040009B05DF804FB000000B587B00190019B2A
:109C1400981D02AA0D4B0021FFF74CFD0590059BF2
:109C2400002B08D1039A094B9B8819461046FFF76D
:109C340091FF059004E008220021044816F044FC3A
:109C4400059B184607B05DF804FB00BF583400209C
:109C540000B587B003900291039B01229A75029B81
:109C64000C331846039B1A69039BDB889900002375
:109C740000930B460146074801F0D8FF0590059B69
:109C8400002B01D1002300E00E23184607B05DF835
:109C940004FB00BF982A002082B0184B1B890133B3
:109CA4009AB2164B1A81154B00225A80134B00228C
:109CB4001A730023ADF8063018E0BDF806201049E9
:109CC40013469B0013449B000B441A78BDF80630DE
:109CD400002A0CBF01220022D1B2084A13440A46CA
:109CE4009A72BDF806300133ADF80630BDF806307F
:109CF400012BE2D900BF02B0704700BF48340020F6
:109D04001834002084B0019000238DF80F30002314
:109D1400ADF80C3031E0BDF80C301C4A13449B7A8A
:109D2400002B25D0BDF80C30184A134400229A7237
:109D3400BDF80C20164913469B0013449B000B44AA
:109D44000C331B68002B13D1BDF80C2010491346AB
:109D54009B0013449B000B4410331B78002B07D04B
:109D6400019BBDF80C201A8001238DF80F3008E008
:109D7400BDF80C300133ADF80C30BDF80C30012BBC
:109D8400C9D99DF80F30184604B0704748340020F4
:109D94001834002008B5084B05221A70074B02221C
:109DA4009A80064B1B68194600230122044802F0DE
:109DB4001FF80346184608BD4834002040340020EC
:109DC400982A002000B583B0164B5B88ADF80230AA
:109DD400BDF80220144913469B0013449B000B4416
:109DE4000C331B68002B14D10E4B04221A70BDF8DF
:109DF40002200D4913469B0013449B000B4404337B
:109E04001B68194600230122084801F0F1FF019064
:109E140002E0FFF7BFFF0190019B184603B05DF815
:109E240004FB00BF4834002018340020982A002086
:109E340000B587B0114B5B680593114B1A68104B42
:109E44009B889B0013440493059B5B880333ADF804
:109E54000E300A4B03221A700499084B5A68BDF855
:109E64000E309800002300930346064801F0DEFEFE
:109E74000346184607B05DF804FB00BF48340020D1
:109E840040340020982A002000B583B00A4B5B8838
:109E94000A491846FFF764FB0346002B03D0FFF77B
:109EA400C7FF019002E0FFF78DFF0190019B184668
:109EB40003B05DF804FB00BF483400204C3400209C
:109EC40008B50A4B06221A70084B5B881946084AE3
:109ED4000B469B000B449B00134404331B68184639
:109EE400FFF790FA0346184608BD00BF4834002027
:109EF4001834002008B5054B07221A70034B0022C2
:109F04005A60FFF767FA0346184608BD4834002034
:109F140008B50D48FFF7F6FE034683F00103DBB2F4
:109F2400002B0BD0094B00221A70084B00225A80D8
:109F3400064B00225A6041F61D5302E0FFF7A4FFCE
:109F44000346184608BD00BF4A34002048340020A8
:109F540082B0094B5B680193019B5B880333ADF8C6
:109F64000230064B9A88BDF8023013449AB2034B70
:109F74009A8000BF02B0704748340020403400206B
:109F840082B0184B1B680193174B5B881946174A1C
:109F94000B469B000B449B00134404331B68114A7B
:109FA4001360114B5B881946104A0B469B000B4407
:109FB4009B0013440433019A1A600B4B5B881946C7
:109FC400084B9888094A0B469B000B449B0013449A
:109FD400083302461A80034B02229A8000BF02B063
:109FE400704700BF4034002048340020183400205B
:109FF40008B51A4B1B78072B2CD801A252F823F072
:10A0040025A0020059A0020059A0020031A00200BC
:10A014003DA0020049A0020049A0020051A0020094
:10A02400FFF73AFE0D4B01221A7014E0FFF790FF80
:10A034000A4B02221A700EE0FFF7A2FF074B06221A
:10A044001A7008E0054B07221A7004E0034B012242
:10A054001A7000E000BF00BF08BD00BF48340020F4
:10A0640000B587B0019000910F230593019B002B4D
:10A0740004D0624B00225A600123BBE0009B1B7991
:10A08400032B00F2AB8001A252F823F0A1A002003E
:10A09400AFA002003DA102005DA10200009B0122CD
:10A0A4001A71FFF797F905909BE000238DF81330A0
:10A0B4000023ADF810302BE0BDF8102050491346B2
:10A0C4009B0013449B000B441B78022B1BD1BDF84F
:10A0D40010204B4913469B0013449B000B44002261
:10A0E4001A7001238DF81330BDF81020444913462B
:10A0F4009B0013449B000B4404331B681846FFF772
:10A1040081F9059008E0BDF810300133ADF8103046
:10A11400BDF81030012BCFD99DF8133083F0010323
:10A12400DBB2002B5CD0354B01221A70334B00227A
:10A134005A6041F61D535DE0009B00221A71314BB9
:10A1440002229A802F4B1B681946002301222E48B5
:10A1540001F04EFE059044E0009B00221A71294B49
:10A164001B681846FFF74EF90590284B5B88ADF83D
:10A174000E30244B1B680293BDF80E202049134671
:10A184009B0013449B000B4404331B681D4A13605B
:10A19400BDF80E201A4913469B0013449B000B4440
:10A1A4000433029A1A60BDF80E20164B988814499D
:10A1B40013469B0013449B000B44083302461A8049
:10A1C400104B02229A80BDF80E200D4913469B00C5
:10A1D40013449B000B4400221A7002E000BF00E00D
:10A1E40000BF059B002B04D0044B00225A600E23B1
:10A1F40000E00023184607B05DF804FB5833002044
:10A204001834002040340020982A002048340020CC
:10A2140000B587B001900091009B9B8A1A461346B3
:10A224009B0013449B003A4A13440493019B002B64
:10A2340005D000990498FFF7AFF8012363E0049B6D
:10A244005A68049B1B899B0013440393009B9B7DCA
:10A25400062B4DD801A252F823F000BFA3A202009E
:10A26400C7A20200AFA20200BBA202007DA20200AC
:10A27400D3A20200EDA20200264B00225A60009BEA
:10A284009B69244A136024492248FFF7B9F903461D
:10A2940083F00103DBB2002B01D00A2333E00399DE
:10A2A4000098FFF7EDFB059025E003990098FFF770
:10A2B40005FC05901FE003990098FFF7C9FC059081
:10A2C40019E003990098FFF71FFC059013E0009B29
:10A2D40006229A750F4B5A680F4B1B881946104675
:10A2E400FFF738FC059006E041F61D53059302E0A4
:10A2F4000F23059300BF059B002B03D000990498FE
:10A30400FFF74AF8059B184607B05DF804FB00BF49
:10A3140018340020603400206C34002000B585B06F
:10A3240001900091019B002B01D0012323E0009BAD
:10A334001B79012B0BD0022B14D0002B16D1009BC0
:10A3440002221A710098FFF72FFC039012E0009884
:10A35400FFF75AFC0390039B0A2B0AD141F61D53C5
:10A36400039306E041F61D53039303E00F23039385
:10A3740000E000BF039B184605B05DF804FB000035
:10A3840000B585B00190019B002B01D001233BE077
:10A394001F4B1B7B002B03D01D4B00221A7301E0C3
:10A3A400FFF726FE1A4B1B78013B062B28D801A287
:10A3B40052F823F0D5A30200DDA30200E5A30200B6
:10A3C400EDA3020005A40200F5A30200FDA3020010
:10A3D400FFF79EFD039016E0FFF756FD039012E091
:10A3E400FFF726FD03900EE0FFF7ECFC03900AE074
:10A3F400FFF766FD039006E0FFF77CFD039002E0A3
:10A404000F23039300BF039B184605B05DF804FBBC
:10A414004834002000B589B001903F4B1B68002BE5
:10A4240005D13E48FFF7D8F902463B4B1A603A4B38
:10A434001B68002B04D13A4940F2825009F022FCF7
:10A44400354B1B681B78013B052B2CD801A252F815
:10A4540023F000BF71A4020081A4020081A40200C1
:10A4640091A4020091A40200A1A402002A4B1B683B
:10A4740019460198FFF7F4FD019017E0264B1B687D
:10A4840019460198FFF7C4FE01900FE0224B1B68A8
:10A4940019460198FFF742FF019007E00198FFF782
:10A4A4006FFF019002E00F23019300BF019B002B7B
:10A4B4002BD003AB00221A605A609A60DA601A61EA
:10A4C400019B41F61D52934201D0019B00E0002301
:10A4D4000493114B1B6803AA11461846FEF78AFD24
:10A4E40003AB1846FEF768FD0B4B00221A600023ED
:10A4F40001930A48FFF780F9FFF78CF9034683F0CC
:10A504000103DBB2002B02D187E700BF00E000BFEC
:10A5140000BF09B05DF804FB7034002074340020DF
:10A52400443D040008B50121054800F090FD0346B0
:10A53400002B02D10020FFF76DFF00BF08BD00BF54
:10A544006033002000B583B00190019B5B6818461E
:10A55400FFF760FF00BF03B05DF804FB00B58BB0EC
:10A564000390029101928DF803300023ADF824305A
:10A574000023ADF82630514B1B78DBB283F0010386
:10A58400DBB2002B01D0022393E0029B002B01D10C
:10A5940005238EE0029B1B884FF6FF72934203D083
:10A5A400029B5B88002B01D1042382E0029B5B6841
:10A5B4001846FEF7F4FC034683F00103DBB2002BDC
:10A5C40001D0032375E0019B002B11D1029B9B68F2
:10A5D400ADF826300DF11A02BDF8263011461846A2
:10A5E400FEF724FF0890089B002B09D0089B60E02D
:10A5F400019B1B88ADF81A30019B5B88ADF82630AF
:10A6040005AB1846FFF7C4F80790079B002B09D148
:10A61400BDF81A20BDF8263011461846FEF76EFF25
:10A62400082346E0079B9DF803201A70079B00222D
:10A634009A75BDF81A20079B9A82029B5A68079B59
:10A644001A61FEF783FF0246079BDA60029B1A88B1
:10A65400079B1A81029B5A88079B9A80079BBDF827
:10A664002620DA809DF80330032B06D1079B0422B1
:10A674009A75039B1A68079B9A61079BBDF824206F
:10A684005A8105AB1846FFF799F8039B002B0DD0B0
:10A69400039B00225A60079BDA68039B1A60039BA2
:10A6A40000229A72064B1A89039B1A81FFF73AFF1C
:10A6B400002318460BB05DF804FB00BF583300209C
:10A6C4004834002000B585B001900C4B1B68042B66
:10A6D40002D10C2303930BE0084B1B680849019A31
:10A6E40041F823200121054800F0C9FC002303930D
:10A6F400039B184605B05DF804FB00BF64330020DB
:10A704006833002084B04FF010235B6903934FF04B
:10A7140080531B6902934FF080535B690193039B41
:10A72400B3F1FF3F04D1019B029A02FB03F300E063
:10A73400039B184604B0704700B583B04FF44053F0
:10A744000193FFF7DFFF0246054B1A61044B1A69B8
:10A75400019BD31A024AD36000BF03B05DF804FB27
:10A76400982A002008B5FFF7E7FF002203490448B0
:10A7740001F014FA0346184608BD00BFF440040073
:10A78400982A002008B504481C238C22034900F0B1
:10A794008DFA00BF08BD00BF083400207C330020C0
:10A7A40000B58BB002AB00221A605A609A60DA607E
:10A7B4001A61404B1B78DBB2002B05D002AB184664
:10A7C400FEF7FAFB002371E03B4800F088FC0346E7
:10A7D400002B01D0002369E0FFF7C4FF0990099B17
:10A7E400002B01D0099B61E0FFF7CCFFFFF72CF8A9
:10A7F40003468DF823309DF82330022B03D0062B1B
:10A8040003D0002B0DD10B2350E02A4B01221A70E8
:10A81400284B00225A6002AB1846FEF7CDFB0023FA
:10A8240044E000BF01AB1846FEF7B2FF0790079B58
:10A83400002B01D1082339E0079B01221A709DF8EF
:10A844002330013B0A2B29D801A252F823F000BF80
:10A8540081A80200A1A8020081A80200A1A8020008
:10A8640099A80200A1A8020099A80200A1A80200C8
:10A8740089A8020091A8020089A80200079B00226F
:10A884001A710CE0079B03221A7108E0079B02224D
:10A894001A7104E0079B01221A7100E000BF01ABAA
:10A8A4001846FEF78BFFFFF73DFE002318460BB05A
:10A8B4005DF804FB583300205C33002000B585B0FC
:10A8C40001900091019B002B02D0009B002B01D131
:10A8D400052329E00DF10A0319460198FEF790FEBD
:10A8E4000346002B1FD0019B5B680393BDF80A301D
:10A8F4001A4613469B0013449B0008330C4A134426
:10A9040004330121184600F0BAFB009B039A1A6035
:10A91400019B5B6803F10C02009B5A60019B0122BE
:10A924009A72002300E00A23184605B05DF804FB80
:10A934001834002000B585B00190019B002B01D193
:10A94400052339E00DF10A0319460198FEF758FE74
:10A954000346002B2DD0BDF80A301946184A0B4681
:10A964009B000B449B0013440C331B68002B1DD02D
:10A97400019B9B7A002B19D0BDF80A301A46104966
:10A9840013469B0013449B000B440C331B68591E55
:10A994000B4813469B0013449B0003440C3319607B
:10A9A400019B00229A720023039304E0062303937D
:10A9B40001E00A230393039B184605B05DF804FBEA
:10A9C4001834002000B583B00190009102230022C6
:10A9D40000990198FFF7C2FD0346184603B05DF8DD
:10A9E40004FB00B583B001900091019B002B01D1C1
:10A9F400052306E00323002200990198FFF7AEFD2A
:10AA04000346184603B05DF804FB000000B585B0AA
:10AA14000346ADF80630184B1B78DBB283F0010314
:10AA2400DBB2002B01D0022322E0BDF806304FF642
:10AA3400FF72934201D104231AE002AB1846FEF7D9
:10AA4400A7FE0390039B002B01D1082310E0039B76
:10AA540005221A70039B01221A71039BBDF806207C
:10AA6400DA8002AB1846FEF7A9FEFFF75BFD002370
:10AA7400184605B05DF804FB5833002000B583B0D8
:10AA8400144B1B78DBB283F00103DBB2002B01D043
:10AA940002231AE06B461846FEF77AFE0190019BEA
:10AAA400002B01D1082310E0019B06221A706B468B
:10AAB4001846FEF783FE084B1B78002B02D0064B8A
:10AAC40001221A73FFF72EFD0023184603B05DF828
:10AAD40004FB00BF583300204834002000B585B083
:10AAE400029201930346ADF80E300B46ADF80C30DC
:10AAF40003A90DF10E00019B029AFEF7DBFD03464C
:10AB0400184605B05DF804FB00B585B00346029114
:10AB14000192ADF80E300DF10E01019B029A002056
:10AB2400FEF7C8FD0346184605B05DF804FB00B502
:10AB340085B0034602910192ADF80E300DF10E007E
:10AB4400019B029A0021FEF7B5FD0346184605B0A5
:10AB54005DF804FB82B001900091019B002B02D0B0
:10AB6400009B002B01D1052304E0019B1A68009B84
:10AB74001A600023184602B0704786B00190009115
:10AB8400019B53E8011F8AB2D88902449889824202
:10AB940028BF121A1889824202BFBFF32F8F0023E5
:10ABA40007E0C2EA010243E801200028E9D14FF09E
:10ABB40001038DF80F30059002910492029A009BD4
:10ABC4001A609DF80F30DBB2184606B0704784B0A7
:10ABD4000190019951E8013FC3EA034341E801327E
:10ABE400002AF7D10392029300BF04B0704786B0E5
:10ABF40001900091019B53E8021F1FFAA1F2D8882B
:10AC0400824202BFBFF32F8F00230DE0D889024494
:10AC14009889824228BF121AC1EA024243E80220FC
:10AC24000028E8D14FF001038DF80F300590029110
:10AC34000492029A009B1A609DF80F30DBB218460A
:10AC440006B0704784B00190019951E8023FC3EA0D
:10AC5400234341E80232002AF7D10392029300BF52
:10AC640004B0704786B00190019B53E8021FDA8854
:10AC7400B1EB314F4FF0000017BF89B242EA0242F4
:10AC840041EA024204E05968B1EB314F08BF0120A8
:10AC940043E802210029E8D18DF80F0005910492C0
:10ACA4009DF80F30DBB2184606B0704784B00390AD
:10ACB400029111461A460B46ADF806301346ADF81C
:10ACC4000430029B002B01D10E231FE0BDF8063097
:10ACD400BDF80420B3FBF2F102FB01F29B1A9BB214
:10ACE400002B01D0092311E0039B029A1A60039BF5
:10ACF40000225A60039B00229A60039BBDF8062041
:10AD04009A81039BBDF80420DA810023184604B01D
:10AD1400704700B585B001900198FFF7A3FF034683
:10AD24008DF80F309DF80F30002B01D0002300E088
:10AD34001123184605B05DF804FB00B585B00190F9
:10AD44000091009B19460198FFF717FF0346002B5B
:10AD540007D0019B1B68009A128813440393039B3A
:10AD640000E00023184605B05DF804FB00B583B08D
:10AD740001900091009B1A88009B5B889A4204D141
:10AD84000198FFF724FF012300E00023184603B0D5
:10AD94005DF804FB00B585B001900091009B194655
:10ADA4000198FFF724FF0346002B07D0019B1B6883
:10ADB400009A528813440393039B00E0002318462F
:10ADC40005B05DF804FB00B583B001900091009BD1
:10ADD4001A88009B5B889A4204D10198FFF732FFDE
:10ADE400012300E00023184603B05DF804FB00B51E
:10ADF40085B001900091009B5B099B00019AD018DB
:10AE0400009B03F01F03012202FA03F3194600F02A
:10AE1400D6F8039000BF05B05DF804FB00B583B01D
:10AE240001900091009B5B099B00019AD018009B44
:10AE340003F01F03012202FA03F3194600F0A7F8F6
:10AE44000246009B03F01F0322FA03F303F00103FD
:10AE5400002B14BF01230023DBB2184603B05DF8B6
:10AE640004FB00B585B001900091009B5B099B0039
:10AE7400019AD018009B03F01F03012202FA03F386
:10AE8400DB43194600F0CBF8039000BF05B05DF832
:10AE940004FB82B001900091009B5B099B00019A26
:10AEA40013441A68009B03F01F0322FA03F303F010
:10AEB4000103002B14BF01230023DBB2184602B0A8
:10AEC400704700B58BB001900091002309933BE0DB
:10AED400099B9B00019A13441B68DB430693069B62
:10AEE40093FAA3F30593059BB3FA83F3089323E042
:10AEF400099B5B01089A13440793079A009B9A42A3
:10AF04001ED207990198FFF789FF034683F00103D6
:10AF1400DBB2002B01D0079B1EE0099B9B00019A2A
:10AF240013441B68DB430493049B93FAA3F3039336
:10AF3400039BB3FA83F30893089B1F2BD8D900E033
:10AF440000BF099B01330993009B013B5B0901335B
:10AF5400099A9A42BCD3009B18460BB05DF804FBD7
:10AF640010B487B001900091019B009A53E8004F00
:10AF7400104643E8000191F0000FF7D105940490C6
:10AF84000391059B184607B05DF8044B704710B455
:10AF940087B001900091019B009A53E8004F44EA66
:10AFA400020043E8000191F0000FF6D105940490EB
:10AFB4000391059B184607B05DF8044B704710B425
:10AFC40087B001900091019B009A53E8004F44EA36
:10AFD400020043E8000191F0000FF6D105940490BB
:10AFE4000391049B184607B05DF8044B704710B4F6
:10AFF40087B001900091019B009A53E8004F04EA46
:10B00400020043E8000191F0000FF6D1059404908A
:10B014000391059B184607B05DF8044B704710B4C4
:10B0240087B001900091019B009A53E8004F04EA15
:10B03400020043E8000191F0000FF6D1059404905A
:10B044000391049B184607B05DF8044B704710B495
:10B0540087B001900091019B009A53E8004F04EBE4
:10B06400020043E8000191F0000FF6D1059404902A
:10B074000391059B184607B05DF8044B704710B464
:10B0840087B001900091019B009A53E8004F04EBB4
:10B09400020043E8000191F0000FF6D105940490FA
:10B0A4000391049B184607B05DF8044B704710B435
:10B0B40087B001900091019B009A53E8004FA4EBE4
:10B0C400020043E8000191F0000FF6D105940490CA
:10B0D4000391049B184607B05DF8044B704700B514
:10B0E40083B0019001210198FFF751FF03461846F0
:10B0F40003B05DF804FB00B583B001900121019811
:10B10400FFF75DFF0346184603B05DF804FB00B586
:10B1140083B0019000210198FFF769FF03461846A8
:10B1240003B05DF804FB00B583B0019000210198E1
:10B13400FFF775FF0346184603B05DF804FB0000F3
:10B1440000B583B001900B468DF80330019B002BB2
:10B1540003D10849E82008F095FD019BDA689DF8C1
:10B1640003300199098A01FB03F31344184603B021
:10B174005DF804FBB83D040000B583B00190009174
:10B18400019B002B03D10849F52008F07BFD009BAF
:10B19400019AD2689B1A019A128AB3FBF2F3DBB2CA
:10B1A400184603B05DF804FBB83D040000B585B053
:10B1B4000190019B002B01D10E234CE0019B1B68E5
:10B1C400002B03D12649FF2008F05CFD019B5B683E
:10B1D400002B04D122494FF4807008F053FD019BE9
:10B1E4009B68002B04D11E4940F2011008F04AFD6F
:10B1F400019BDB68002B04D119494FF4817008F0DE
:10B2040041FD019B1B8A002B04D1154940F2031018
:10B2140008F038FD019B9A68019B5B68D31A8DF88E
:10B224000F30019B1B68019A52681A6007E0019B6A
:10B234001A681368591C11609DF80F201A709DF844
:10B244000F305A1E8DF80F20002BF0D1019B1B6884
:10B2540000221A710023184605B05DF804FB00BFF4
:10B26400B83D040000B585B00190019B002B04D1CA
:10B274001F494FF4927008F005FD00230393002347
:10B284008DF80A300DF10A031846FDF73BFE019BC9
:10B294001B681A68019B5B689A421FD9019B1B6853
:10B2A4001A68013A1A601B681B7819460198FFF75F
:10B2B40047FF0390019B9A68019B1B681B68D31A84
:10B2C4008DF80B30019B1B681B799DF80B209A426B
:10B2D40004D9019B1B689DF80B201A719DF80A3054
:10B2E4001846FDF725FE039B184605B05DF804FBE0
:10B2F400B83D040010B584B001900091019B002B6F
:10B3040004D1154940F2471008F0BCFC009B002B07
:10B3140004D111494FF4A47008F0B4FC009B0393CA
:10B3240000238DF80B300DF10B031846FDF7EAFDF1
:10B33400019B1B681C68621C1A6003990198FFF743
:10B344001BFF034623709DF80B301846FDF7F0FDF4
:10B3540000BF04B010BD00BFB83D040000B583B009
:10B364000190019B002B03D10C49312008F08AFC89
:10B37400019B9B68002B0CD0019B5B69019A1069AF
:10B38400019A1168019A92689847019B00229A6079
:10B3940000E000BF03B05DF804FB00BF203E0400E2
:10B3A4000EB400B584B00190019B002B03D1184961
:10B3B400422008F067FC019B5B69002B03D1144910
:10B3C400432008F05FFC019B1B68002B03D110494C
:10B3D400442008F057FC019B5B68002B03D10C4907
:10B3E400452008F04FFC059B002B0AD00023039353
:10B3F40006AB039303AB1A460599019800F0B0F924
:10B4040000E000BF04B05DF804EB03B0704700BF78
:10B41400203E040000B583B001900B468DF8033044
:10B42400019B1A68019B9B68581C0199886013440E
:10B434009DF803201A70019B9A68019B5B689A42ED
:10B4440002D30198FFF78AFF00BF03B05DF804FB45
:10B4540000B587B0039002910192009300230593F5
:10B46400009B03F00103002B24D00BE0029B01336B
:10B474000293059B013305939DF8133019460398F5
:10B48400FFF7C8FF029B1B788DF813309DF813302B
:10B49400002BEBD106E0019B013B01932021039893
:10B4A400FFF7B8FF019A059B9A422ED9019B002B06
:10B4B400F1D12AE0029B002B0BD0029815F059F829
:10B4C400059006E0019B013B019320210398FFF7BF
:10B4D400A1FF019A059B9A420FD9019B002BF1D140
:10B4E4000BE0029B01330293059B013305939DF806
:10B4F400133019460398FFF78DFF029B1B788DF8D4
:10B5040013309DF81330002BEBD100BF07B05DF86A
:10B5140004FB000000B589B00390029101920093EE
:10B52400029B07930123069307E0079A019BB2FB52
:10B53400F3F30793069B01330693079A019B9A4200
:10B54400F3D2009A069B9A4201D9009B06930B9B67
:10B5540003F00103002B22D10A9B002B1FD00B9B6D
:10B5640003F00203002B06D0009B002B03D13023F1
:10B574008DF8173002E020238DF8173008E00A9B7D
:10B58400013B0A939DF8173019460398FFF742FFD1
:10B594000A9B002B03D0069A0A9B9A42EFD30123FD
:10B5A4000793009B012B03D9009B013B009309E007
:10B5B400029A079BB2FBF3F30493049A019B9A4209
:10B5C40000D205E0079B019A02FB03F30793E8E727
:10B5D400029A079BB2FBF3F30493049B079A02FBC2
:10B5E40003F3029AD31A0293154A049B13441B785B
:10B5F40019460398FFF70EFF079A019BB2FBF3F37A
:10B604000793079B002BE3D10B9B03F00103002B53
:10B6140011D00A9B002B0ED006E00A9B013B0A9333
:10B6240020210398FFF7F6FE0A9B002B03D0069A0D
:10B634000A9B9A42F1D300BF09B05DF804FB00BF36
:10B64400E83E040000B589B005900491039202938A
:10B65400049B002BB8BF5B4206930123079307E0CA
:10B66400039B069A92FBF3F30693079B013307931C
:10B67400039B069A9A42F3DA029A079B9A4201D9EB
:10B68400029B07930A9B002B0AD0049B002B04DB2C
:10B694000B9B03F00403002B02D00A9B013B0A938B
:10B6A4000B9B03F00203002B02D0029B002B16D04D
:10B6B4000B9B03F00103002B11D10A9B002B0ED02E
:10B6C40006E00A9B013B0A9320210598FFF7A2FE9E
:10B6D4000A9B002B03D0079A0A9B9A42F1D3049B3E
:10B6E400002B07DA049B5B4204932D210598FFF796
:10B6F40091FE08E00B9B03F00403002B03D02B21E5
:10B704000598FFF787FE0B9B03F00203002B19D06B
:10B714000B9B03F00103002B14D1029B002B11D1CE
:10B724000A9B002B0ED006E00A9B013B0A933021B2
:10B734000598FFF76FFE0A9B002B03D0079A0A9B1C
:10B744009A42F1D304990B9B01930A9B0093029BA9
:10B75400039A0598FFF7DEFE00BF09B05DF804FB0D
:10B7640000B58FB0059004910392059B002B04D182
:10B77400C8494FF49F7008F085FA059B5B69002B5C
:10B7840004D1C4494FF4A07008F07CFA059B1B68EF
:10B79400002B04D1BF4940F2411008F073FA059B15
:10B7A4005B68002B04D1BB494FF4A17008F06AFA1E
:10B7B400049B002B00F0ED81049B1B788DF837303F
:10B7C400049B013304939DF83730002B00F0D8819B
:10B7D4009DF83730252B40F0C78100230A930123BD
:10B7E4000C93049B1B788DF837309DF837302D2B44
:10B7F40004D0302B0AD02B2B10D017E00A9B43F037
:10B8040001030A93049B0133049312E00A9B43F05F
:10B8140002030A93049B013304930AE00A9B43F056
:10B8240004030A93049B0133049302E000230C9362
:10B8340000BF0C9B002BD4D1002309939DF8373013
:10B844002A2B0CD1039B1B68191D039A11601B68DA
:10B85400099A13440993049B013304931AE0049B4B
:10B864001B788DF837309DF837302F2B12D99DF87F
:10B874003730392B0ED8049B01330493099A1346AD
:10B884009B0013445B001A469DF837301344303B49
:10B894000993D3E700230B93049B1B788DF837306F
:10B8A4009DF837302E2B1DD1049B01330493049B48
:10B8B4001B788DF837309DF837302F2B12D99DF82F
:10B8C4003730392B0ED8049B013304930B9A13465B
:10B8D4009B0013445B001A469DF837301344303BF9
:10B8E4000B93E4E7049B1B788DF837309DF83730D1
:10B8F4006C2B03D09DF83730682B07D1049B0133A0
:10B904000493049B1B788DF83730EFE79DF83730AC
:10B91400253B532B00F2238101A252F823F000BFF0
:10B9240059BB020063BB020063BB020063BB02009D
:10B9340063BB020063BB020063BB020063BB020083
:10B9440063BB020063BB020063BB020063BB020073
:10B9540063BB020063BB020063BB020063BB020063
:10B9640063BB020063BB020063BB020063BB020053
:10B9740063BB020063BB020063BB020063BB020043
:10B9840063BB020063BB020063BB020063BB020033
:10B9940063BB020063BB020063BB020063BB020023
:10B9A40063BB020063BB020063BB020063BB020013
:10B9B40063BB020063BB020063BB020063BB020003
:10B9C40063BB020063BB020063BB020063BB0200F3
:10B9D40063BB020063BB020063BB020063BB0200E3
:10B9E40063BB020063BB020063BB0200E5BA020052
:10B9F40063BB020063BB020063BB020063BB0200C3
:10BA040063BB020063BB020063BB020063BB0200B2
:10BA140063BB020063BB020075BA02009DBA020058
:10BA240063BB020063BB020063BB020063BB020092
:10BA34009DBA020063BB020063BB020063BB020049
:10BA440063BB020063BB020063BB020025BB0200B0
:10BA540063BB020063BB020009BB020063BB0200BC
:10BA6400C1BA020063BB020063BB0200E5BA020074
:10BA7400039B1B68191D039A11601B680C930C9B94
:10BA84008DF823309DF8233019460598FFF7C2FC42
:10BA940066E000BF803E0400039B1B68191D039AE7
:10BAA40011601B680C930A9B0193099B00930B9BE9
:10BAB4000A220C990598FFF7C5FD51E0039B1B680A
:10BAC400191D039A11601B680C930C990A9B01932E
